{
  "_format": "hh-sol-artifact-1",
  "contractName": "StakeRewardToken",
  "sourceName": "contracts/StakeRewardToken.sol",
  "abi": [
    {
      "inputs": [],
      "stateMutability": "nonpayable",
      "type": "constructor"
    },
    {
      "anonymous": false,
      "inputs": [
        {
          "indexed": true,
          "internalType": "address",
          "name": "owner",
          "type": "address"
        },
        {
          "indexed": true,
          "internalType": "address",
          "name": "spender",
          "type": "address"
        },
        {
          "indexed": false,
          "internalType": "uint256",
          "name": "value",
          "type": "uint256"
        }
      ],
      "name": "Approval",
      "type": "event"
    },
    {
      "anonymous": false,
      "inputs": [
        {
          "indexed": true,
          "internalType": "address",
          "name": "previousOwner",
          "type": "address"
        },
        {
          "indexed": true,
          "internalType": "address",
          "name": "newOwner",
          "type": "address"
        }
      ],
      "name": "OwnershipTransferred",
      "type": "event"
    },
    {
      "anonymous": false,
      "inputs": [
        {
          "indexed": true,
          "internalType": "address",
          "name": "from",
          "type": "address"
        },
        {
          "indexed": true,
          "internalType": "address",
          "name": "to",
          "type": "address"
        },
        {
          "indexed": false,
          "internalType": "uint256",
          "name": "value",
          "type": "uint256"
        }
      ],
      "name": "Transfer",
      "type": "event"
    },
    {
      "inputs": [
        {
          "internalType": "address",
          "name": "owner",
          "type": "address"
        },
        {
          "internalType": "address",
          "name": "spender",
          "type": "address"
        }
      ],
      "name": "allowance",
      "outputs": [
        {
          "internalType": "uint256",
          "name": "",
          "type": "uint256"
        }
      ],
      "stateMutability": "view",
      "type": "function"
    },
    {
      "inputs": [
        {
          "internalType": "address",
          "name": "spender",
          "type": "address"
        },
        {
          "internalType": "uint256",
          "name": "amount",
          "type": "uint256"
        }
      ],
      "name": "approve",
      "outputs": [
        {
          "internalType": "bool",
          "name": "",
          "type": "bool"
        }
      ],
      "stateMutability": "nonpayable",
      "type": "function"
    },
    {
      "inputs": [
        {
          "internalType": "address",
          "name": "account",
          "type": "address"
        }
      ],
      "name": "balanceOf",
      "outputs": [
        {
          "internalType": "uint256",
          "name": "",
          "type": "uint256"
        }
      ],
      "stateMutability": "view",
      "type": "function"
    },
    {
      "inputs": [],
      "name": "buyToken",
      "outputs": [],
      "stateMutability": "payable",
      "type": "function"
    },
    {
      "inputs": [],
      "name": "claimReward",
      "outputs": [
        {
          "internalType": "bool",
          "name": "",
          "type": "bool"
        }
      ],
      "stateMutability": "nonpayable",
      "type": "function"
    },
    {
      "inputs": [],
      "name": "decimals",
      "outputs": [
        {
          "internalType": "uint8",
          "name": "",
          "type": "uint8"
        }
      ],
      "stateMutability": "view",
      "type": "function"
    },
    {
      "inputs": [
        {
          "internalType": "address",
          "name": "spender",
          "type": "address"
        },
        {
          "internalType": "uint256",
          "name": "subtractedValue",
          "type": "uint256"
        }
      ],
      "name": "decreaseAllowance",
      "outputs": [
        {
          "internalType": "bool",
          "name": "",
          "type": "bool"
        }
      ],
      "stateMutability": "nonpayable",
      "type": "function"
    },
    {
      "inputs": [
        {
          "internalType": "address",
          "name": "spender",
          "type": "address"
        },
        {
          "internalType": "uint256",
          "name": "addedValue",
          "type": "uint256"
        }
      ],
      "name": "increaseAllowance",
      "outputs": [
        {
          "internalType": "bool",
          "name": "",
          "type": "bool"
        }
      ],
      "stateMutability": "nonpayable",
      "type": "function"
    },
    {
      "inputs": [
        {
          "internalType": "address",
          "name": "_stakeholder",
          "type": "address"
        }
      ],
      "name": "isStakeHolder",
      "outputs": [
        {
          "internalType": "bool",
          "name": "",
          "type": "bool"
        },
        {
          "internalType": "uint256",
          "name": "",
          "type": "uint256"
        }
      ],
      "stateMutability": "view",
      "type": "function"
    },
    {
      "inputs": [
        {
          "internalType": "uint256",
          "name": "rate",
          "type": "uint256"
        }
      ],
      "name": "modifyTokenBuyPrice",
      "outputs": [],
      "stateMutability": "nonpayable",
      "type": "function"
    },
    {
      "inputs": [],
      "name": "name",
      "outputs": [
        {
          "internalType": "string",
          "name": "",
          "type": "string"
        }
      ],
      "stateMutability": "view",
      "type": "function"
    },
    {
      "inputs": [],
      "name": "owner",
      "outputs": [
        {
          "internalType": "address",
          "name": "",
          "type": "address"
        }
      ],
      "stateMutability": "view",
      "type": "function"
    },
    {
      "inputs": [],
      "name": "renounceOwnership",
      "outputs": [],
      "stateMutability": "nonpayable",
      "type": "function"
    },
    {
      "inputs": [
        {
          "internalType": "address",
          "name": "_stakeholder",
          "type": "address"
        }
      ],
      "name": "rewardOf",
      "outputs": [
        {
          "internalType": "uint256",
          "name": "",
          "type": "uint256"
        }
      ],
      "stateMutability": "view",
      "type": "function"
    },
    {
      "inputs": [],
      "name": "rewardStakeHolders",
      "outputs": [],
      "stateMutability": "nonpayable",
      "type": "function"
    },
    {
      "inputs": [
        {
          "internalType": "address",
          "name": "_stakeholder",
          "type": "address"
        }
      ],
      "name": "stakeOf",
      "outputs": [
        {
          "internalType": "uint256",
          "name": "",
          "type": "uint256"
        }
      ],
      "stateMutability": "view",
      "type": "function"
    },
    {
      "inputs": [
        {
          "internalType": "uint256",
          "name": "_stake",
          "type": "uint256"
        }
      ],
      "name": "stakeToken",
      "outputs": [],
      "stateMutability": "nonpayable",
      "type": "function"
    },
    {
      "inputs": [],
      "name": "symbol",
      "outputs": [
        {
          "internalType": "string",
          "name": "",
          "type": "string"
        }
      ],
      "stateMutability": "view",
      "type": "function"
    },
    {
      "inputs": [],
      "name": "tokensPerEther",
      "outputs": [
        {
          "internalType": "uint256",
          "name": "",
          "type": "uint256"
        }
      ],
      "stateMutability": "view",
      "type": "function"
    },
    {
      "inputs": [],
      "name": "totalStakeHolders",
      "outputs": [
        {
          "internalType": "uint256",
          "name": "",
          "type": "uint256"
        }
      ],
      "stateMutability": "view",
      "type": "function"
    },
    {
      "inputs": [],
      "name": "totalStakes",
      "outputs": [
        {
          "internalType": "uint256",
          "name": "",
          "type": "uint256"
        }
      ],
      "stateMutability": "view",
      "type": "function"
    },
    {
      "inputs": [],
      "name": "totalSupply",
      "outputs": [
        {
          "internalType": "uint256",
          "name": "",
          "type": "uint256"
        }
      ],
      "stateMutability": "view",
      "type": "function"
    },
    {
      "inputs": [
        {
          "internalType": "address",
          "name": "to",
          "type": "address"
        },
        {
          "internalType": "uint256",
          "name": "amount",
          "type": "uint256"
        }
      ],
      "name": "transfer",
      "outputs": [
        {
          "internalType": "bool",
          "name": "",
          "type": "bool"
        }
      ],
      "stateMutability": "nonpayable",
      "type": "function"
    },
    {
      "inputs": [
        {
          "internalType": "address",
          "name": "from",
          "type": "address"
        },
        {
          "internalType": "address",
          "name": "to",
          "type": "address"
        },
        {
          "internalType": "uint256",
          "name": "amount",
          "type": "uint256"
        }
      ],
      "name": "transferFrom",
      "outputs": [
        {
          "internalType": "bool",
          "name": "",
          "type": "bool"
        }
      ],
      "stateMutability": "nonpayable",
      "type": "function"
    },
    {
      "inputs": [
        {
          "internalType": "address",
          "name": "newOwner",
          "type": "address"
        }
      ],
      "name": "transferOwnership",
      "outputs": [],
      "stateMutability": "nonpayable",
      "type": "function"
    },
    {
      "inputs": [
        {
          "internalType": "uint256",
          "name": "_stake",
          "type": "uint256"
        }
      ],
      "name": "unstakeToken",
      "outputs": [
        {
          "internalType": "bool",
          "name": "",
          "type": "bool"
        }
      ],
      "stateMutability": "nonpayable",
      "type": "function"
    }
  ],
  "bytecode": "0x60806040526103e86006553480156200001757600080fd5b506040518060400160405280601081526020017f5374616b65526577617264546f6b656e000000000000000000000000000000008152506040518060400160405280600381526020017f535254000000000000000000000000000000000000000000000000000000000081525081600390805190602001906200009c92919062000390565b508060049080519060200190620000b592919062000390565b505050620000d8620000cc6200010260201b60201c565b6200010a60201b60201c565b620000fc33620000f06103e8620001d060201b60201c565b6200020460201b60201c565b620007ff565b600033905090565b6000600560009054906101000a900473ffffffffffffffffffffffffffffffffffffffff16905081600560006101000a81548173ffffffffffffffffffffffffffffffffffffffff021916908373ffffffffffffffffffffffffffffffffffffffff1602179055508173ffffffffffffffffffffffffffffffffffffffff168173ffffffffffffffffffffffffffffffffffffffff167f8be0079c531659141344cd1fd0a4f28419497f9722a3daafe3b4186f6b6457e060405160405180910390a35050565b6000620001e26200037d60201b60201c565b600a620001f0919062000580565b82620001fd9190620006bd565b9050919050565b600073ffffffffffffffffffffffffffffffffffffffff168273ffffffffffffffffffffffffffffffffffffffff16141562000277576040517f08c379a00000000000000000000000000000000000000000000000000000000081526004016200026e9062000478565b60405180910390fd5b6200028b600083836200038660201b60201c565b80600260008282546200029f9190620004c8565b92505081905550806000808473ffffffffffffffffffffffffffffffffffffffff1673ffffffffffffffffffffffffffffffffffffffff1681526020019081526020016000206000828254620002f69190620004c8565b925050819055508173ffffffffffffffffffffffffffffffffffffffff16600073ffffffffffffffffffffffffffffffffffffffff167fddf252ad1be2c89b69c2b068fc378daa952ba7f163c4a11628f55a4df523b3ef836040516200035d91906200049a565b60405180910390a362000379600083836200038b60201b60201c565b5050565b60006012905090565b505050565b505050565b8280546200039e9062000735565b90600052602060002090601f016020900481019282620003c257600085556200040e565b82601f10620003dd57805160ff19168380011785556200040e565b828001600101855582156200040e579182015b828111156200040d578251825591602001919060010190620003f0565b5b5090506200041d919062000421565b5090565b5b808211156200043c57600081600090555060010162000422565b5090565b60006200044f601f83620004b7565b91506200045c82620007d6565b602082019050919050565b62000472816200071e565b82525050565b60006020820190508181036000830152620004938162000440565b9050919050565b6000602082019050620004b1600083018462000467565b92915050565b600082825260208201905092915050565b6000620004d5826200071e565b9150620004e2836200071e565b9250827fffffffffffffffffffffffffffffffffffffffffffffffffffffffffffffffff038211156200051a57620005196200076b565b5b828201905092915050565b6000808291508390505b600185111562000577578086048111156200054f576200054e6200076b565b5b60018516156200055f5780820291505b80810290506200056f85620007c9565b94506200052f565b94509492505050565b60006200058d826200071e565b91506200059a8362000728565b9250620005c97fffffffffffffffffffffffffffffffffffffffffffffffffffffffffffffffff8484620005d1565b905092915050565b600082620005e35760019050620006b6565b81620005f35760009050620006b6565b81600181146200060c576002811462000617576200064d565b6001915050620006b6565b60ff8411156200062c576200062b6200076b565b5b8360020a9150848211156200064657620006456200076b565b5b50620006b6565b5060208310610133831016604e8410600b8410161715620006875782820a9050838111156200068157620006806200076b565b5b620006b6565b62000696848484600162000525565b92509050818404811115620006b057620006af6200076b565b5b81810290505b9392505050565b6000620006ca826200071e565b9150620006d7836200071e565b9250817fffffffffffffffffffffffffffffffffffffffffffffffffffffffffffffffff04831182151516156200071357620007126200076b565b5b828202905092915050565b6000819050919050565b600060ff82169050919050565b600060028204905060018216806200074e57607f821691505b602082108114156200076557620007646200079a565b5b50919050565b7f4e487b7100000000000000000000000000000000000000000000000000000000600052601160045260246000fd5b7f4e487b7100000000000000000000000000000000000000000000000000000000600052602260045260246000fd5b60008160011c9050919050565b7f45524332303a206d696e7420746f20746865207a65726f206164647265737300600082015250565b612b2b806200080f6000396000f3fe6080604052600436106101815760003560e01c80638da5cb5b116100d1578063bf9befb11161008a578063e4c9050111610064578063e4c90501146105c6578063f0e2b016146105f1578063f2fde38b14610608578063f856d6051461063157610181565b8063bf9befb114610535578063cda6b84714610560578063dd62ed3e1461058957610181565b80638da5cb5b1461043057806395d89b411461045b578063a457c2d714610486578063a4821719146104c3578063a9059cbb146104cd578063b88a802f1461050a57610181565b8063313ce5671161013e5780636351215911610118578063635121591461037557806370a08231146103b3578063715018a6146103f0578063834dc9841461040757610181565b8063313ce567146102d057806339509351146102fb578063426233601461033857610181565b806306fdde0314610186578063095ea7b3146101b157806318160ddd146101ee5780631d62ebd91461021957806323b872dd146102565780632cfb668814610293575b600080fd5b34801561019257600080fd5b5061019b61065c565b6040516101a891906121f2565b60405180910390f35b3480156101bd57600080fd5b506101d860048036038101906101d39190611f38565b6106ee565b6040516101e591906121ae565b60405180910390f35b3480156101fa57600080fd5b50610203610711565b6040516102109190612374565b60405180910390f35b34801561022557600080fd5b50610240600480360381019061023b9190611e84565b61071b565b60405161024d9190612374565b60405180910390f35b34801561026257600080fd5b5061027d60048036038101906102789190611ee9565b610764565b60405161028a91906121ae565b60405180910390f35b34801561029f57600080fd5b506102ba60048036038101906102b59190611f74565b610793565b6040516102c791906121ae565b60405180910390f35b3480156102dc57600080fd5b506102e56108f5565b6040516102f2919061238f565b60405180910390f35b34801561030757600080fd5b50610322600480360381019061031d9190611f38565b6108fe565b60405161032f91906121ae565b60405180910390f35b34801561034457600080fd5b5061035f600480360381019061035a9190611e84565b6109a8565b60405161036c9190612374565b60405180910390f35b34801561038157600080fd5b5061039c60048036038101906103979190611e84565b6109f1565b6040516103aa9291906121c9565b60405180910390f35b3480156103bf57600080fd5b506103da60048036038101906103d59190611e84565b610aca565b6040516103e79190612374565b60405180910390f35b3480156103fc57600080fd5b50610405610b12565b005b34801561041357600080fd5b5061042e60048036038101906104299190611f74565b610b9a565b005b34801561043c57600080fd5b50610445610c20565b6040516104529190612193565b60405180910390f35b34801561046757600080fd5b50610470610c4a565b60405161047d91906121f2565b60405180910390f35b34801561049257600080fd5b506104ad60048036038101906104a89190611f38565b610cdc565b6040516104ba91906121ae565b60405180910390f35b6104cb610dc6565b005b3480156104d957600080fd5b506104f460048036038101906104ef9190611f38565b610de5565b60405161050191906121ae565b60405180910390f35b34801561051657600080fd5b5061051f610e08565b60405161052c91906121ae565b60405180910390f35b34801561054157600080fd5b5061054a610f2f565b6040516105579190612374565b60405180910390f35b34801561056c57600080fd5b5061058760048036038101906105829190611f74565b611019565b005b34801561059557600080fd5b506105b060048036038101906105ab9190611ead565b611135565b6040516105bd9190612374565b60405180910390f35b3480156105d257600080fd5b506105db6111bc565b6040516105e89190612374565b60405180910390f35b3480156105fd57600080fd5b506106066111c9565b005b34801561061457600080fd5b5061062f600480360381019061062a9190611e84565b611327565b005b34801561063d57600080fd5b5061064661141f565b6040516106539190612374565b60405180910390f35b60606003805461066b906126d4565b80601f0160208091040260200160405190810160405280929190818152602001828054610697906126d4565b80156106e45780601f106106b9576101008083540402835291602001916106e4565b820191906000526020600020905b8154815290600101906020018083116106c757829003601f168201915b5050505050905090565b6000806106f9611429565b9050610706818585611431565b600191505092915050565b6000600254905090565b6000600960008373ffffffffffffffffffffffffffffffffffffffff1673ffffffffffffffffffffffffffffffffffffffff168152602001908152602001600020549050919050565b60008061076f611429565b905061077c8582856115fc565b610787858585611688565b60019150509392505050565b60008061079f83611909565b90506107f381600860003373ffffffffffffffffffffffffffffffffffffffff1673ffffffffffffffffffffffffffffffffffffffff1681526020019081526020016000205461193190919063ffffffff16565b600860003373ffffffffffffffffffffffffffffffffffffffff1673ffffffffffffffffffffffffffffffffffffffff168152602001908152602001600020819055506000600860003373ffffffffffffffffffffffffffffffffffffffff1673ffffffffffffffffffffffffffffffffffffffff1681526020019081526020016000205414156108885761088733611947565b5b61089a610893610c20565b3383611688565b6108eb6108a5610c20565b33600860003373ffffffffffffffffffffffffffffffffffffffff1673ffffffffffffffffffffffffffffffffffffffff16815260200190815260200160002054611431565b6001915050919050565b60006012905090565b600080610909611429565b905061099d818585600160008673ffffffffffffffffffffffffffffffffffffffff1673ffffffffffffffffffffffffffffffffffffffff16815260200190815260200160002060008973ffffffffffffffffffffffffffffffffffffffff1673ffffffffffffffffffffffffffffffffffffffff1681526020019081526020016000205461099891906123c6565b611431565b600191505092915050565b6000600860008373ffffffffffffffffffffffffffffffffffffffff1673ffffffffffffffffffffffffffffffffffffffff168152602001908152602001600020549050919050565b60008060005b600780549050811015610abc5760078181548110610a3e577f4e487b7100000000000000000000000000000000000000000000000000000000600052603260045260246000fd5b9060005260206000200160009054906101000a900473ffffffffffffffffffffffffffffffffffffffff1673ffffffffffffffffffffffffffffffffffffffff168473ffffffffffffffffffffffffffffffffffffffff161415610aa9576001819250925050610ac5565b8080610ab490612706565b9150506109f7565b50600080915091505b915091565b60008060008373ffffffffffffffffffffffffffffffffffffffff1673ffffffffffffffffffffffffffffffffffffffff168152602001908152602001600020549050919050565b610b1a611429565b73ffffffffffffffffffffffffffffffffffffffff16610b38610c20565b73ffffffffffffffffffffffffffffffffffffffff1614610b8e576040517f08c379a0000000000000000000000000000000000000000000000000000000008152600401610b85906122b4565b60405180910390fd5b610b986000611ac8565b565b610ba2611429565b73ffffffffffffffffffffffffffffffffffffffff16610bc0610c20565b73ffffffffffffffffffffffffffffffffffffffff1614610c16576040517f08c379a0000000000000000000000000000000000000000000000000000000008152600401610c0d906122b4565b60405180910390fd5b8060068190555050565b6000600560009054906101000a900473ffffffffffffffffffffffffffffffffffffffff16905090565b606060048054610c59906126d4565b80601f0160208091040260200160405190810160405280929190818152602001828054610c85906126d4565b8015610cd25780601f10610ca757610100808354040283529160200191610cd2565b820191906000526020600020905b815481529060010190602001808311610cb557829003601f168201915b5050505050905090565b600080610ce7611429565b90506000600160008373ffffffffffffffffffffffffffffffffffffffff1673ffffffffffffffffffffffffffffffffffffffff16815260200190815260200160002060008673ffffffffffffffffffffffffffffffffffffffff1673ffffffffffffffffffffffffffffffffffffffff16815260200190815260200160002054905083811015610dad576040517f08c379a0000000000000000000000000000000000000000000000000000000008152600401610da490612334565b60405180910390fd5b610dba8286868403611431565b60019250505092915050565b600060065434610dd691906125be565b9050610de23382611b8e565b50565b600080610df0611429565b9050610dfd818585611688565b600191505092915050565b600080600960003373ffffffffffffffffffffffffffffffffffffffff1673ffffffffffffffffffffffffffffffffffffffff16815260200190815260200160002054905060008111610e90576040517f08c379a0000000000000000000000000000000000000000000000000000000008152600401610e8790612314565b60405180910390fd5b610ee1610e9b610c20565b33600960003373ffffffffffffffffffffffffffffffffffffffff1673ffffffffffffffffffffffffffffffffffffffff16815260200190815260200160002054610764565b506000600960003373ffffffffffffffffffffffffffffffffffffffff1673ffffffffffffffffffffffffffffffffffffffff16815260200190815260200160002081905550600191505090565b6000806000905060005b60078054905081101561101157610ffc6008600060078481548110610f87577f4e487b7100000000000000000000000000000000000000000000000000000000600052603260045260246000fd5b9060005260206000200160009054906101000a900473ffffffffffffffffffffffffffffffffffffffff1673ffffffffffffffffffffffffffffffffffffffff1673ffffffffffffffffffffffffffffffffffffffff1681526020019081526020016000205483611cee90919063ffffffff16565b9150808061100990612706565b915050610f39565b508091505090565b600061102482611909565b905061103833611032610c20565b83611688565b61104a611043610c20565b3383611431565b6000600860003373ffffffffffffffffffffffffffffffffffffffff1673ffffffffffffffffffffffffffffffffffffffff16815260200190815260200160002054141561109c5761109b33611d04565b5b6110ee81600860003373ffffffffffffffffffffffffffffffffffffffff1673ffffffffffffffffffffffffffffffffffffffff16815260200190815260200160002054611cee90919063ffffffff16565b600860003373ffffffffffffffffffffffffffffffffffffffff1673ffffffffffffffffffffffffffffffffffffffff168152602001908152602001600020819055505050565b6000600160008473ffffffffffffffffffffffffffffffffffffffff1673ffffffffffffffffffffffffffffffffffffffff16815260200190815260200160002060008373ffffffffffffffffffffffffffffffffffffffff1673ffffffffffffffffffffffffffffffffffffffff16815260200190815260200160002054905092915050565b6000600780549050905090565b6111d1611429565b73ffffffffffffffffffffffffffffffffffffffff166111ef610c20565b73ffffffffffffffffffffffffffffffffffffffff1614611245576040517f08c379a000000000000000000000000000000000000000000000000000000000815260040161123c906122b4565b60405180910390fd5b60005b60078054905081101561132457600060078281548110611291577f4e487b7100000000000000000000000000000000000000000000000000000000600052603260045260246000fd5b9060005260206000200160009054906101000a900473ffffffffffffffffffffffffffffffffffffffff16905060006112c982611d7f565b905080600960008473ffffffffffffffffffffffffffffffffffffffff1673ffffffffffffffffffffffffffffffffffffffff168152602001908152602001600020819055505050808061131c90612706565b915050611248565b50565b61132f611429565b73ffffffffffffffffffffffffffffffffffffffff1661134d610c20565b73ffffffffffffffffffffffffffffffffffffffff16146113a3576040517f08c379a000000000000000000000000000000000000000000000000000000000815260040161139a906122b4565b60405180910390fd5b600073ffffffffffffffffffffffffffffffffffffffff168173ffffffffffffffffffffffffffffffffffffffff161415611413576040517f08c379a000000000000000000000000000000000000000000000000000000000815260040161140a90612234565b60405180910390fd5b61141c81611ac8565b50565b6000600654905090565b600033905090565b600073ffffffffffffffffffffffffffffffffffffffff168373ffffffffffffffffffffffffffffffffffffffff1614156114a1576040517f08c379a0000000000000000000000000000000000000000000000000000000008152600401611498906122f4565b60405180910390fd5b600073ffffffffffffffffffffffffffffffffffffffff168273ffffffffffffffffffffffffffffffffffffffff161415611511576040517f08c379a000000000000000000000000000000000000000000000000000000000815260040161150890612254565b60405180910390fd5b80600160008573ffffffffffffffffffffffffffffffffffffffff1673ffffffffffffffffffffffffffffffffffffffff16815260200190815260200160002060008473ffffffffffffffffffffffffffffffffffffffff1673ffffffffffffffffffffffffffffffffffffffff168152602001908152602001600020819055508173ffffffffffffffffffffffffffffffffffffffff168373ffffffffffffffffffffffffffffffffffffffff167f8c5be1e5ebec7d5bd14f71427d1e84f3dd0314c0f7b2291e5b200ac8c7c3b925836040516115ef9190612374565b60405180910390a3505050565b60006116088484611135565b90507fffffffffffffffffffffffffffffffffffffffffffffffffffffffffffffffff81146116825781811015611674576040517f08c379a000000000000000000000000000000000000000000000000000000000815260040161166b90612274565b60405180910390fd5b6116818484848403611431565b5b50505050565b600073ffffffffffffffffffffffffffffffffffffffff168373ffffffffffffffffffffffffffffffffffffffff1614156116f8576040517f08c379a00000000000000000000000000000000000000000000000000000000081526004016116ef906122d4565b60405180910390fd5b600073ffffffffffffffffffffffffffffffffffffffff168273ffffffffffffffffffffffffffffffffffffffff161415611768576040517f08c379a000000000000000000000000000000000000000000000000000000000815260040161175f90612214565b60405180910390fd5b611773838383611e50565b60008060008573ffffffffffffffffffffffffffffffffffffffff1673ffffffffffffffffffffffffffffffffffffffff168152602001908152602001600020549050818110156117f9576040517f08c379a00000000000000000000000000000000000000000000000000000000081526004016117f090612294565b60405180910390fd5b8181036000808673ffffffffffffffffffffffffffffffffffffffff1673ffffffffffffffffffffffffffffffffffffffff16815260200190815260200160002081905550816000808573ffffffffffffffffffffffffffffffffffffffff1673ffffffffffffffffffffffffffffffffffffffff168152602001908152602001600020600082825461188c91906123c6565b925050819055508273ffffffffffffffffffffffffffffffffffffffff168473ffffffffffffffffffffffffffffffffffffffff167fddf252ad1be2c89b69c2b068fc378daa952ba7f163c4a11628f55a4df523b3ef846040516118f09190612374565b60405180910390a3611903848484611e55565b50505050565b60006119136108f5565b600a61191f91906124a0565b8261192a91906125be565b9050919050565b6000818361193f9190612618565b905092915050565b600080611953836109f1565b915091508115611ac357600760016007805490506119719190612618565b815481106119a8577f4e487b7100000000000000000000000000000000000000000000000000000000600052603260045260246000fd5b9060005260206000200160009054906101000a900473ffffffffffffffffffffffffffffffffffffffff1660078281548110611a0d577f4e487b7100000000000000000000000000000000000000000000000000000000600052603260045260246000fd5b9060005260206000200160006101000a81548173ffffffffffffffffffffffffffffffffffffffff021916908373ffffffffffffffffffffffffffffffffffffffff1602179055506007805480611a8d577f4e487b7100000000000000000000000000000000000000000000000000000000600052603160045260246000fd5b6001900381819060005260206000200160006101000a81549073ffffffffffffffffffffffffffffffffffffffff021916905590555b505050565b6000600560009054906101000a900473ffffffffffffffffffffffffffffffffffffffff16905081600560006101000a81548173ffffffffffffffffffffffffffffffffffffffff021916908373ffffffffffffffffffffffffffffffffffffffff1602179055508173ffffffffffffffffffffffffffffffffffffffff168173ffffffffffffffffffffffffffffffffffffffff167f8be0079c531659141344cd1fd0a4f28419497f9722a3daafe3b4186f6b6457e060405160405180910390a35050565b600073ffffffffffffffffffffffffffffffffffffffff168273ffffffffffffffffffffffffffffffffffffffff161415611bfe576040517f08c379a0000000000000000000000000000000000000000000000000000000008152600401611bf590612354565b60405180910390fd5b611c0a60008383611e50565b8060026000828254611c1c91906123c6565b92505081905550806000808473ffffffffffffffffffffffffffffffffffffffff1673ffffffffffffffffffffffffffffffffffffffff1681526020019081526020016000206000828254611c7191906123c6565b925050819055508173ffffffffffffffffffffffffffffffffffffffff16600073ffffffffffffffffffffffffffffffffffffffff167fddf252ad1be2c89b69c2b068fc378daa952ba7f163c4a11628f55a4df523b3ef83604051611cd69190612374565b60405180910390a3611cea60008383611e55565b5050565b60008183611cfc91906123c6565b905092915050565b6000611d0f826109f1565b50905080611d7b576007829080600181540180825580915050600190039060005260206000200160009091909190916101000a81548173ffffffffffffffffffffffffffffffffffffffff021916908373ffffffffffffffffffffffffffffffffffffffff1602179055505b5050565b6000611d89611429565b73ffffffffffffffffffffffffffffffffffffffff16611da7610c20565b73ffffffffffffffffffffffffffffffffffffffff1614611dfd576040517f08c379a0000000000000000000000000000000000000000000000000000000008152600401611df4906122b4565b60405180910390fd5b6064600860008473ffffffffffffffffffffffffffffffffffffffff1673ffffffffffffffffffffffffffffffffffffffff16815260200190815260200160002054611e49919061241c565b9050919050565b505050565b505050565b600081359050611e6981612ac7565b92915050565b600081359050611e7e81612ade565b92915050565b600060208284031215611e9657600080fd5b6000611ea484828501611e5a565b91505092915050565b60008060408385031215611ec057600080fd5b6000611ece85828601611e5a565b9250506020611edf85828601611e5a565b9150509250929050565b600080600060608486031215611efe57600080fd5b6000611f0c86828701611e5a565b9350506020611f1d86828701611e5a565b9250506040611f2e86828701611e6f565b9150509250925092565b60008060408385031215611f4b57600080fd5b6000611f5985828601611e5a565b9250506020611f6a85828601611e6f565b9150509250929050565b600060208284031215611f8657600080fd5b6000611f9484828501611e6f565b91505092915050565b611fa68161264c565b82525050565b611fb58161265e565b82525050565b6000611fc6826123aa565b611fd081856123b5565b9350611fe08185602086016126a1565b611fe9816127dc565b840191505092915050565b60006120016023836123b5565b915061200c826127fa565b604082019050919050565b60006120246026836123b5565b915061202f82612849565b604082019050919050565b60006120476022836123b5565b915061205282612898565b604082019050919050565b600061206a601d836123b5565b9150612075826128e7565b602082019050919050565b600061208d6026836123b5565b915061209882612910565b604082019050919050565b60006120b06020836123b5565b91506120bb8261295f565b602082019050919050565b60006120d36025836123b5565b91506120de82612988565b604082019050919050565b60006120f66024836123b5565b9150612101826129d7565b604082019050919050565b6000612119601f836123b5565b915061212482612a26565b602082019050919050565b600061213c6025836123b5565b915061214782612a4f565b604082019050919050565b600061215f601f836123b5565b915061216a82612a9e565b602082019050919050565b61217e8161268a565b82525050565b61218d81612694565b82525050565b60006020820190506121a86000830184611f9d565b92915050565b60006020820190506121c36000830184611fac565b92915050565b60006040820190506121de6000830185611fac565b6121eb6020830184612175565b9392505050565b6000602082019050818103600083015261220c8184611fbb565b905092915050565b6000602082019050818103600083015261222d81611ff4565b9050919050565b6000602082019050818103600083015261224d81612017565b9050919050565b6000602082019050818103600083015261226d8161203a565b9050919050565b6000602082019050818103600083015261228d8161205d565b9050919050565b600060208201905081810360008301526122ad81612080565b9050919050565b600060208201905081810360008301526122cd816120a3565b9050919050565b600060208201905081810360008301526122ed816120c6565b9050919050565b6000602082019050818103600083015261230d816120e9565b9050919050565b6000602082019050818103600083015261232d8161210c565b9050919050565b6000602082019050818103600083015261234d8161212f565b9050919050565b6000602082019050818103600083015261236d81612152565b9050919050565b60006020820190506123896000830184612175565b92915050565b60006020820190506123a46000830184612184565b92915050565b600081519050919050565b600082825260208201905092915050565b60006123d18261268a565b91506123dc8361268a565b9250827fffffffffffffffffffffffffffffffffffffffffffffffffffffffffffffffff038211156124115761241061274f565b5b828201905092915050565b60006124278261268a565b91506124328361268a565b9250826124425761244161277e565b5b828204905092915050565b6000808291508390505b6001851115612497578086048111156124735761247261274f565b5b60018516156124825780820291505b8081029050612490856127ed565b9450612457565b94509492505050565b60006124ab8261268a565b91506124b683612694565b92506124e37fffffffffffffffffffffffffffffffffffffffffffffffffffffffffffffffff84846124eb565b905092915050565b6000826124fb57600190506125b7565b8161250957600090506125b7565b816001811461251f576002811461252957612558565b60019150506125b7565b60ff84111561253b5761253a61274f565b5b8360020a9150848211156125525761255161274f565b5b506125b7565b5060208310610133831016604e8410600b841016171561258d5782820a9050838111156125885761258761274f565b5b6125b7565b61259a848484600161244d565b925090508184048111156125b1576125b061274f565b5b81810290505b9392505050565b60006125c98261268a565b91506125d48361268a565b9250817fffffffffffffffffffffffffffffffffffffffffffffffffffffffffffffffff048311821515161561260d5761260c61274f565b5b828202905092915050565b60006126238261268a565b915061262e8361268a565b9250828210156126415761264061274f565b5b828203905092915050565b60006126578261266a565b9050919050565b60008115159050919050565b600073ffffffffffffffffffffffffffffffffffffffff82169050919050565b6000819050919050565b600060ff82169050919050565b60005b838110156126bf5780820151818401526020810190506126a4565b838111156126ce576000848401525b50505050565b600060028204905060018216806126ec57607f821691505b60208210811415612700576126ff6127ad565b5b50919050565b60006127118261268a565b91507fffffffffffffffffffffffffffffffffffffffffffffffffffffffffffffffff8214156127445761274361274f565b5b600182019050919050565b7f4e487b7100000000000000000000000000000000000000000000000000000000600052601160045260246000fd5b7f4e487b7100000000000000000000000000000000000000000000000000000000600052601260045260246000fd5b7f4e487b7100000000000000000000000000000000000000000000000000000000600052602260045260246000fd5b6000601f19601f8301169050919050565b60008160011c9050919050565b7f45524332303a207472616e7366657220746f20746865207a65726f206164647260008201527f6573730000000000000000000000000000000000000000000000000000000000602082015250565b7f4f776e61626c653a206e6577206f776e657220697320746865207a65726f206160008201527f6464726573730000000000000000000000000000000000000000000000000000602082015250565b7f45524332303a20617070726f766520746f20746865207a65726f20616464726560008201527f7373000000000000000000000000000000000000000000000000000000000000602082015250565b7f45524332303a20696e73756666696369656e7420616c6c6f77616e6365000000600082015250565b7f45524332303a207472616e7366657220616d6f756e742065786365656473206260008201527f616c616e63650000000000000000000000000000000000000000000000000000602082015250565b7f4f776e61626c653a2063616c6c6572206973206e6f7420746865206f776e6572600082015250565b7f45524332303a207472616e736665722066726f6d20746865207a65726f20616460008201527f6472657373000000000000000000000000000000000000000000000000000000602082015250565b7f45524332303a20617070726f76652066726f6d20746865207a65726f2061646460008201527f7265737300000000000000000000000000000000000000000000000000000000602082015250565b7f596f75206d757374206861766520612072657761726420746f20636c61696d00600082015250565b7f45524332303a2064656372656173656420616c6c6f77616e63652062656c6f7760008201527f207a65726f000000000000000000000000000000000000000000000000000000602082015250565b7f45524332303a206d696e7420746f20746865207a65726f206164647265737300600082015250565b612ad08161264c565b8114612adb57600080fd5b50565b612ae78161268a565b8114612af257600080fd5b5056fea2646970667358221220688f6dd97d2bcfbbf0942d9e6962b68f81778c014ab490158bde1cfc9c2e93ce64736f6c63430008040033",
  "linkReferences": {},
  "deployedLinkReferences": {}
}