{
  "_format": "hh-sol-artifact-1",
  "contractName": "StakeRewardToken",
  "sourceName": "contracts/StakeRewardToken.sol",
  "abi": [
    {
      "inputs": [],
      "stateMutability": "nonpayable",
      "type": "constructor"
    },
    {
      "anonymous": false,
      "inputs": [
        {
          "indexed": true,
          "internalType": "address",
          "name": "owner",
          "type": "address"
        },
        {
          "indexed": true,
          "internalType": "address",
          "name": "spender",
          "type": "address"
        },
        {
          "indexed": false,
          "internalType": "uint256",
          "name": "value",
          "type": "uint256"
        }
      ],
      "name": "Approval",
      "type": "event"
    },
    {
      "anonymous": false,
      "inputs": [
        {
          "indexed": true,
          "internalType": "address",
          "name": "previousOwner",
          "type": "address"
        },
        {
          "indexed": true,
          "internalType": "address",
          "name": "newOwner",
          "type": "address"
        }
      ],
      "name": "OwnershipTransferred",
      "type": "event"
    },
    {
      "anonymous": false,
      "inputs": [
        {
          "indexed": true,
          "internalType": "address",
          "name": "from",
          "type": "address"
        },
        {
          "indexed": true,
          "internalType": "address",
          "name": "to",
          "type": "address"
        },
        {
          "indexed": false,
          "internalType": "uint256",
          "name": "value",
          "type": "uint256"
        }
      ],
      "name": "Transfer",
      "type": "event"
    },
    {
      "inputs": [
        {
          "internalType": "address",
          "name": "owner",
          "type": "address"
        },
        {
          "internalType": "address",
          "name": "spender",
          "type": "address"
        }
      ],
      "name": "allowance",
      "outputs": [
        {
          "internalType": "uint256",
          "name": "",
          "type": "uint256"
        }
      ],
      "stateMutability": "view",
      "type": "function"
    },
    {
      "inputs": [
        {
          "internalType": "address",
          "name": "spender",
          "type": "address"
        },
        {
          "internalType": "uint256",
          "name": "amount",
          "type": "uint256"
        }
      ],
      "name": "approve",
      "outputs": [
        {
          "internalType": "bool",
          "name": "",
          "type": "bool"
        }
      ],
      "stateMutability": "nonpayable",
      "type": "function"
    },
    {
      "inputs": [
        {
          "internalType": "address",
          "name": "account",
          "type": "address"
        }
      ],
      "name": "balanceOf",
      "outputs": [
        {
          "internalType": "uint256",
          "name": "",
          "type": "uint256"
        }
      ],
      "stateMutability": "view",
      "type": "function"
    },
    {
      "inputs": [],
      "name": "buyToken",
      "outputs": [],
      "stateMutability": "payable",
      "type": "function"
    },
    {
      "inputs": [],
      "name": "claimReward",
      "outputs": [
        {
          "internalType": "bool",
          "name": "",
          "type": "bool"
        }
      ],
      "stateMutability": "nonpayable",
      "type": "function"
    },
    {
      "inputs": [],
      "name": "decimals",
      "outputs": [
        {
          "internalType": "uint8",
          "name": "",
          "type": "uint8"
        }
      ],
      "stateMutability": "view",
      "type": "function"
    },
    {
      "inputs": [
        {
          "internalType": "address",
          "name": "spender",
          "type": "address"
        },
        {
          "internalType": "uint256",
          "name": "subtractedValue",
          "type": "uint256"
        }
      ],
      "name": "decreaseAllowance",
      "outputs": [
        {
          "internalType": "bool",
          "name": "",
          "type": "bool"
        }
      ],
      "stateMutability": "nonpayable",
      "type": "function"
    },
    {
      "inputs": [
        {
          "internalType": "address",
          "name": "spender",
          "type": "address"
        },
        {
          "internalType": "uint256",
          "name": "addedValue",
          "type": "uint256"
        }
      ],
      "name": "increaseAllowance",
      "outputs": [
        {
          "internalType": "bool",
          "name": "",
          "type": "bool"
        }
      ],
      "stateMutability": "nonpayable",
      "type": "function"
    },
    {
      "inputs": [
        {
          "internalType": "address",
          "name": "_stakeholder",
          "type": "address"
        }
      ],
      "name": "isStakeHolder",
      "outputs": [
        {
          "internalType": "bool",
          "name": "",
          "type": "bool"
        },
        {
          "internalType": "uint256",
          "name": "",
          "type": "uint256"
        }
      ],
      "stateMutability": "view",
      "type": "function"
    },
    {
      "inputs": [
        {
          "internalType": "uint256",
          "name": "rate",
          "type": "uint256"
        }
      ],
      "name": "modifyTokenBuyPrice",
      "outputs": [],
      "stateMutability": "nonpayable",
      "type": "function"
    },
    {
      "inputs": [],
      "name": "name",
      "outputs": [
        {
          "internalType": "string",
          "name": "",
          "type": "string"
        }
      ],
      "stateMutability": "view",
      "type": "function"
    },
    {
      "inputs": [],
      "name": "owner",
      "outputs": [
        {
          "internalType": "address",
          "name": "",
          "type": "address"
        }
      ],
      "stateMutability": "view",
      "type": "function"
    },
    {
      "inputs": [],
      "name": "renounceOwnership",
      "outputs": [],
      "stateMutability": "nonpayable",
      "type": "function"
    },
    {
      "inputs": [
        {
          "internalType": "address",
          "name": "_stakeholder",
          "type": "address"
        }
      ],
      "name": "rewardOf",
      "outputs": [
        {
          "internalType": "uint256",
          "name": "",
          "type": "uint256"
        }
      ],
      "stateMutability": "view",
      "type": "function"
    },
    {
      "inputs": [],
      "name": "rewardStakeHolders",
      "outputs": [],
      "stateMutability": "nonpayable",
      "type": "function"
    },
    {
      "inputs": [
        {
          "internalType": "address",
          "name": "_stakeholder",
          "type": "address"
        }
      ],
      "name": "stakeOf",
      "outputs": [
        {
          "internalType": "uint256",
          "name": "",
          "type": "uint256"
        }
      ],
      "stateMutability": "view",
      "type": "function"
    },
    {
      "inputs": [
        {
          "internalType": "uint256",
          "name": "_stake",
          "type": "uint256"
        }
      ],
      "name": "stakeToken",
      "outputs": [
        {
          "internalType": "bool",
          "name": "",
          "type": "bool"
        }
      ],
      "stateMutability": "nonpayable",
      "type": "function"
    },
    {
      "inputs": [],
      "name": "symbol",
      "outputs": [
        {
          "internalType": "string",
          "name": "",
          "type": "string"
        }
      ],
      "stateMutability": "view",
      "type": "function"
    },
    {
      "inputs": [],
      "name": "tokensPerEther",
      "outputs": [
        {
          "internalType": "uint256",
          "name": "",
          "type": "uint256"
        }
      ],
      "stateMutability": "view",
      "type": "function"
    },
    {
      "inputs": [],
      "name": "totalStakeHolders",
      "outputs": [
        {
          "internalType": "uint256",
          "name": "",
          "type": "uint256"
        }
      ],
      "stateMutability": "view",
      "type": "function"
    },
    {
      "inputs": [],
      "name": "totalStakes",
      "outputs": [
        {
          "internalType": "uint256",
          "name": "",
          "type": "uint256"
        }
      ],
      "stateMutability": "view",
      "type": "function"
    },
    {
      "inputs": [],
      "name": "totalSupply",
      "outputs": [
        {
          "internalType": "uint256",
          "name": "",
          "type": "uint256"
        }
      ],
      "stateMutability": "view",
      "type": "function"
    },
    {
      "inputs": [
        {
          "internalType": "address",
          "name": "to",
          "type": "address"
        },
        {
          "internalType": "uint256",
          "name": "amount",
          "type": "uint256"
        }
      ],
      "name": "transfer",
      "outputs": [
        {
          "internalType": "bool",
          "name": "",
          "type": "bool"
        }
      ],
      "stateMutability": "nonpayable",
      "type": "function"
    },
    {
      "inputs": [
        {
          "internalType": "address",
          "name": "from",
          "type": "address"
        },
        {
          "internalType": "address",
          "name": "to",
          "type": "address"
        },
        {
          "internalType": "uint256",
          "name": "amount",
          "type": "uint256"
        }
      ],
      "name": "transferFrom",
      "outputs": [
        {
          "internalType": "bool",
          "name": "",
          "type": "bool"
        }
      ],
      "stateMutability": "nonpayable",
      "type": "function"
    },
    {
      "inputs": [
        {
          "internalType": "address",
          "name": "newOwner",
          "type": "address"
        }
      ],
      "name": "transferOwnership",
      "outputs": [],
      "stateMutability": "nonpayable",
      "type": "function"
    }
  ],
  "bytecode": "0x60806040526103e86006553480156200001757600080fd5b506040518060400160405280601081526020017f5374616b65526577617264546f6b656e000000000000000000000000000000008152506040518060400160405280600381526020017f535254000000000000000000000000000000000000000000000000000000000081525081600390805190602001906200009c92919062000390565b508060049080519060200190620000b592919062000390565b505050620000d8620000cc6200010260201b60201c565b6200010a60201b60201c565b620000fc33620000f06103e8620001d060201b60201c565b6200020460201b60201c565b620007ff565b600033905090565b6000600560009054906101000a900473ffffffffffffffffffffffffffffffffffffffff16905081600560006101000a81548173ffffffffffffffffffffffffffffffffffffffff021916908373ffffffffffffffffffffffffffffffffffffffff1602179055508173ffffffffffffffffffffffffffffffffffffffff168173ffffffffffffffffffffffffffffffffffffffff167f8be0079c531659141344cd1fd0a4f28419497f9722a3daafe3b4186f6b6457e060405160405180910390a35050565b6000620001e26200037d60201b60201c565b600a620001f0919062000580565b82620001fd9190620006bd565b9050919050565b600073ffffffffffffffffffffffffffffffffffffffff168273ffffffffffffffffffffffffffffffffffffffff16141562000277576040517f08c379a00000000000000000000000000000000000000000000000000000000081526004016200026e9062000478565b60405180910390fd5b6200028b600083836200038660201b60201c565b80600260008282546200029f9190620004c8565b92505081905550806000808473ffffffffffffffffffffffffffffffffffffffff1673ffffffffffffffffffffffffffffffffffffffff1681526020019081526020016000206000828254620002f69190620004c8565b925050819055508173ffffffffffffffffffffffffffffffffffffffff16600073ffffffffffffffffffffffffffffffffffffffff167fddf252ad1be2c89b69c2b068fc378daa952ba7f163c4a11628f55a4df523b3ef836040516200035d91906200049a565b60405180910390a362000379600083836200038b60201b60201c565b5050565b60006012905090565b505050565b505050565b8280546200039e9062000735565b90600052602060002090601f016020900481019282620003c257600085556200040e565b82601f10620003dd57805160ff19168380011785556200040e565b828001600101855582156200040e579182015b828111156200040d578251825591602001919060010190620003f0565b5b5090506200041d919062000421565b5090565b5b808211156200043c57600081600090555060010162000422565b5090565b60006200044f601f83620004b7565b91506200045c82620007d6565b602082019050919050565b62000472816200071e565b82525050565b60006020820190508181036000830152620004938162000440565b9050919050565b6000602082019050620004b1600083018462000467565b92915050565b600082825260208201905092915050565b6000620004d5826200071e565b9150620004e2836200071e565b9250827fffffffffffffffffffffffffffffffffffffffffffffffffffffffffffffffff038211156200051a57620005196200076b565b5b828201905092915050565b6000808291508390505b600185111562000577578086048111156200054f576200054e6200076b565b5b60018516156200055f5780820291505b80810290506200056f85620007c9565b94506200052f565b94509492505050565b60006200058d826200071e565b91506200059a8362000728565b9250620005c97fffffffffffffffffffffffffffffffffffffffffffffffffffffffffffffffff8484620005d1565b905092915050565b600082620005e35760019050620006b6565b81620005f35760009050620006b6565b81600181146200060c576002811462000617576200064d565b6001915050620006b6565b60ff8411156200062c576200062b6200076b565b5b8360020a9150848211156200064657620006456200076b565b5b50620006b6565b5060208310610133831016604e8410600b8410161715620006875782820a9050838111156200068157620006806200076b565b5b620006b6565b62000696848484600162000525565b92509050818404811115620006b057620006af6200076b565b5b81810290505b9392505050565b6000620006ca826200071e565b9150620006d7836200071e565b9250817fffffffffffffffffffffffffffffffffffffffffffffffffffffffffffffffff04831182151516156200071357620007126200076b565b5b828202905092915050565b6000819050919050565b600060ff82169050919050565b600060028204905060018216806200074e57607f821691505b602082108114156200076557620007646200079a565b5b50919050565b7f4e487b7100000000000000000000000000000000000000000000000000000000600052601160045260246000fd5b7f4e487b7100000000000000000000000000000000000000000000000000000000600052602260045260246000fd5b60008160011c9050919050565b7f45524332303a206d696e7420746f20746865207a65726f206164647265737300600082015250565b61284f806200080f6000396000f3fe6080604052600436106101665760003560e01c80638da5cb5b116100d1578063bf9befb11161008a578063e4c9050111610064578063e4c9050114610582578063f0e2b016146105ad578063f2fde38b146105c4578063f856d605146105ed57610166565b8063bf9befb1146104dd578063cda6b84714610508578063dd62ed3e1461054557610166565b80638da5cb5b146103d857806395d89b4114610403578063a457c2d71461042e578063a48217191461046b578063a9059cbb14610475578063b88a802f146104b257610166565b8063395093511161012357806339509351146102a357806342623360146102e0578063635121591461031d57806370a082311461035b578063715018a614610398578063834dc984146103af57610166565b806306fdde031461016b578063095ea7b31461019657806318160ddd146101d35780631d62ebd9146101fe57806323b872dd1461023b578063313ce56714610278575b600080fd5b34801561017757600080fd5b50610180610618565b60405161018d9190611f4a565b60405180910390f35b3480156101a257600080fd5b506101bd60048036038101906101b89190611c90565b6106aa565b6040516101ca9190611f06565b60405180910390f35b3480156101df57600080fd5b506101e86106cd565b6040516101f591906120cc565b60405180910390f35b34801561020a57600080fd5b5061022560048036038101906102209190611bdc565b6106d7565b60405161023291906120cc565b60405180910390f35b34801561024757600080fd5b50610262600480360381019061025d9190611c41565b610720565b60405161026f9190611f06565b60405180910390f35b34801561028457600080fd5b5061028d61074f565b60405161029a91906120e7565b60405180910390f35b3480156102af57600080fd5b506102ca60048036038101906102c59190611c90565b610758565b6040516102d79190611f06565b60405180910390f35b3480156102ec57600080fd5b5061030760048036038101906103029190611bdc565b610802565b60405161031491906120cc565b60405180910390f35b34801561032957600080fd5b50610344600480360381019061033f9190611bdc565b61084b565b604051610352929190611f21565b60405180910390f35b34801561036757600080fd5b50610382600480360381019061037d9190611bdc565b6109a0565b60405161038f91906120cc565b60405180910390f35b3480156103a457600080fd5b506103ad6109e8565b005b3480156103bb57600080fd5b506103d660048036038101906103d19190611ccc565b610a70565b005b3480156103e457600080fd5b506103ed610af6565b6040516103fa9190611eeb565b60405180910390f35b34801561040f57600080fd5b50610418610b20565b6040516104259190611f4a565b60405180910390f35b34801561043a57600080fd5b5061045560048036038101906104509190611c90565b610bb2565b6040516104629190611f06565b60405180910390f35b610473610c9c565b005b34801561048157600080fd5b5061049c60048036038101906104979190611c90565b610cbb565b6040516104a99190611f06565b60405180910390f35b3480156104be57600080fd5b506104c7610cde565b6040516104d49190611f06565b60405180910390f35b3480156104e957600080fd5b506104f2610e05565b6040516104ff91906120cc565b60405180910390f35b34801561051457600080fd5b5061052f600480360381019061052a9190611ccc565b610eef565b60405161053c9190611f06565b60405180910390f35b34801561055157600080fd5b5061056c60048036038101906105679190611c05565b611024565b60405161057991906120cc565b60405180910390f35b34801561058e57600080fd5b506105976110ab565b6040516105a491906120cc565b60405180910390f35b3480156105b957600080fd5b506105c26110b8565b005b3480156105d057600080fd5b506105eb60048036038101906105e69190611bdc565b611216565b005b3480156105f957600080fd5b5061060261130e565b60405161060f91906120cc565b60405180910390f35b606060038054610627906123f8565b80601f0160208091040260200160405190810160405280929190818152602001828054610653906123f8565b80156106a05780601f10610675576101008083540402835291602001916106a0565b820191906000526020600020905b81548152906001019060200180831161068357829003601f168201915b5050505050905090565b6000806106b5611318565b90506106c2818585611320565b600191505092915050565b6000600254905090565b6000600960008373ffffffffffffffffffffffffffffffffffffffff1673ffffffffffffffffffffffffffffffffffffffff168152602001908152602001600020549050919050565b60008061072b611318565b90506107388582856114eb565b610743858585611577565b60019150509392505050565b60006012905090565b600080610763611318565b90506107f7818585600160008673ffffffffffffffffffffffffffffffffffffffff1673ffffffffffffffffffffffffffffffffffffffff16815260200190815260200160002060008973ffffffffffffffffffffffffffffffffffffffff1673ffffffffffffffffffffffffffffffffffffffff168152602001908152602001600020546107f2919061211e565b611320565b600191505092915050565b6000600860008373ffffffffffffffffffffffffffffffffffffffff1673ffffffffffffffffffffffffffffffffffffffff168152602001908152602001600020549050919050565b600080610856611318565b73ffffffffffffffffffffffffffffffffffffffff16610874610af6565b73ffffffffffffffffffffffffffffffffffffffff16146108ca576040517f08c379a00000000000000000000000000000000000000000000000000000000081526004016108c19061200c565b60405180910390fd5b60005b6007805490508110156109925760078181548110610914577f4e487b7100000000000000000000000000000000000000000000000000000000600052603260045260246000fd5b9060005260206000200160009054906101000a900473ffffffffffffffffffffffffffffffffffffffff1673ffffffffffffffffffffffffffffffffffffffff168473ffffffffffffffffffffffffffffffffffffffff16141561097f57600181925092505061099b565b808061098a9061242a565b9150506108cd565b50600080915091505b915091565b60008060008373ffffffffffffffffffffffffffffffffffffffff1673ffffffffffffffffffffffffffffffffffffffff168152602001908152602001600020549050919050565b6109f0611318565b73ffffffffffffffffffffffffffffffffffffffff16610a0e610af6565b73ffffffffffffffffffffffffffffffffffffffff1614610a64576040517f08c379a0000000000000000000000000000000000000000000000000000000008152600401610a5b9061200c565b60405180910390fd5b610a6e60006117f8565b565b610a78611318565b73ffffffffffffffffffffffffffffffffffffffff16610a96610af6565b73ffffffffffffffffffffffffffffffffffffffff1614610aec576040517f08c379a0000000000000000000000000000000000000000000000000000000008152600401610ae39061200c565b60405180910390fd5b8060068190555050565b6000600560009054906101000a900473ffffffffffffffffffffffffffffffffffffffff16905090565b606060048054610b2f906123f8565b80601f0160208091040260200160405190810160405280929190818152602001828054610b5b906123f8565b8015610ba85780601f10610b7d57610100808354040283529160200191610ba8565b820191906000526020600020905b815481529060010190602001808311610b8b57829003601f168201915b5050505050905090565b600080610bbd611318565b90506000600160008373ffffffffffffffffffffffffffffffffffffffff1673ffffffffffffffffffffffffffffffffffffffff16815260200190815260200160002060008673ffffffffffffffffffffffffffffffffffffffff1673ffffffffffffffffffffffffffffffffffffffff16815260200190815260200160002054905083811015610c83576040517f08c379a0000000000000000000000000000000000000000000000000000000008152600401610c7a9061208c565b60405180910390fd5b610c908286868403611320565b60019250505092915050565b600060065434610cac9190612316565b9050610cb833826118be565b50565b600080610cc6611318565b9050610cd3818585611577565b600191505092915050565b600080600960003373ffffffffffffffffffffffffffffffffffffffff1673ffffffffffffffffffffffffffffffffffffffff16815260200190815260200160002054905060008111610d66576040517f08c379a0000000000000000000000000000000000000000000000000000000008152600401610d5d9061206c565b60405180910390fd5b610db7610d71610af6565b33600960003373ffffffffffffffffffffffffffffffffffffffff1673ffffffffffffffffffffffffffffffffffffffff16815260200190815260200160002054610720565b506000600960003373ffffffffffffffffffffffffffffffffffffffff1673ffffffffffffffffffffffffffffffffffffffff16815260200190815260200160002081905550600191505090565b6000806000905060005b600780549050811015610ee757610ed26008600060078481548110610e5d577f4e487b7100000000000000000000000000000000000000000000000000000000600052603260045260246000fd5b9060005260206000200160009054906101000a900473ffffffffffffffffffffffffffffffffffffffff1673ffffffffffffffffffffffffffffffffffffffff1673ffffffffffffffffffffffffffffffffffffffff1681526020019081526020016000205483611a1e90919063ffffffff16565b91508080610edf9061242a565b915050610e0f565b508091505090565b600080610efb83611a34565b9050610f0f33610f09610af6565b83611577565b610f21610f1a610af6565b3383611320565b6000600860003373ffffffffffffffffffffffffffffffffffffffff1673ffffffffffffffffffffffffffffffffffffffff168152602001908152602001600020541415610f7357610f7233611a5c565b5b610fc581600860003373ffffffffffffffffffffffffffffffffffffffff1673ffffffffffffffffffffffffffffffffffffffff16815260200190815260200160002054611a1e90919063ffffffff16565b600860003373ffffffffffffffffffffffffffffffffffffffff1673ffffffffffffffffffffffffffffffffffffffff1681526020019081526020016000206000828254611013919061211e565b925050819055506001915050919050565b6000600160008473ffffffffffffffffffffffffffffffffffffffff1673ffffffffffffffffffffffffffffffffffffffff16815260200190815260200160002060008373ffffffffffffffffffffffffffffffffffffffff1673ffffffffffffffffffffffffffffffffffffffff16815260200190815260200160002054905092915050565b6000600780549050905090565b6110c0611318565b73ffffffffffffffffffffffffffffffffffffffff166110de610af6565b73ffffffffffffffffffffffffffffffffffffffff1614611134576040517f08c379a000000000000000000000000000000000000000000000000000000000815260040161112b9061200c565b60405180910390fd5b60005b60078054905081101561121357600060078281548110611180577f4e487b7100000000000000000000000000000000000000000000000000000000600052603260045260246000fd5b9060005260206000200160009054906101000a900473ffffffffffffffffffffffffffffffffffffffff16905060006111b882611ad7565b905080600960008473ffffffffffffffffffffffffffffffffffffffff1673ffffffffffffffffffffffffffffffffffffffff168152602001908152602001600020819055505050808061120b9061242a565b915050611137565b50565b61121e611318565b73ffffffffffffffffffffffffffffffffffffffff1661123c610af6565b73ffffffffffffffffffffffffffffffffffffffff1614611292576040517f08c379a00000000000000000000000000000000000000000000000000000000081526004016112899061200c565b60405180910390fd5b600073ffffffffffffffffffffffffffffffffffffffff168173ffffffffffffffffffffffffffffffffffffffff161415611302576040517f08c379a00000000000000000000000000000000000000000000000000000000081526004016112f990611f8c565b60405180910390fd5b61130b816117f8565b50565b6000600654905090565b600033905090565b600073ffffffffffffffffffffffffffffffffffffffff168373ffffffffffffffffffffffffffffffffffffffff161415611390576040517f08c379a00000000000000000000000000000000000000000000000000000000081526004016113879061204c565b60405180910390fd5b600073ffffffffffffffffffffffffffffffffffffffff168273ffffffffffffffffffffffffffffffffffffffff161415611400576040517f08c379a00000000000000000000000000000000000000000000000000000000081526004016113f790611fac565b60405180910390fd5b80600160008573ffffffffffffffffffffffffffffffffffffffff1673ffffffffffffffffffffffffffffffffffffffff16815260200190815260200160002060008473ffffffffffffffffffffffffffffffffffffffff1673ffffffffffffffffffffffffffffffffffffffff168152602001908152602001600020819055508173ffffffffffffffffffffffffffffffffffffffff168373ffffffffffffffffffffffffffffffffffffffff167f8c5be1e5ebec7d5bd14f71427d1e84f3dd0314c0f7b2291e5b200ac8c7c3b925836040516114de91906120cc565b60405180910390a3505050565b60006114f78484611024565b90507fffffffffffffffffffffffffffffffffffffffffffffffffffffffffffffffff81146115715781811015611563576040517f08c379a000000000000000000000000000000000000000000000000000000000815260040161155a90611fcc565b60405180910390fd5b6115708484848403611320565b5b50505050565b600073ffffffffffffffffffffffffffffffffffffffff168373ffffffffffffffffffffffffffffffffffffffff1614156115e7576040517f08c379a00000000000000000000000000000000000000000000000000000000081526004016115de9061202c565b60405180910390fd5b600073ffffffffffffffffffffffffffffffffffffffff168273ffffffffffffffffffffffffffffffffffffffff161415611657576040517f08c379a000000000000000000000000000000000000000000000000000000000815260040161164e90611f6c565b60405180910390fd5b611662838383611ba8565b60008060008573ffffffffffffffffffffffffffffffffffffffff1673ffffffffffffffffffffffffffffffffffffffff168152602001908152602001600020549050818110156116e8576040517f08c379a00000000000000000000000000000000000000000000000000000000081526004016116df90611fec565b60405180910390fd5b8181036000808673ffffffffffffffffffffffffffffffffffffffff1673ffffffffffffffffffffffffffffffffffffffff16815260200190815260200160002081905550816000808573ffffffffffffffffffffffffffffffffffffffff1673ffffffffffffffffffffffffffffffffffffffff168152602001908152602001600020600082825461177b919061211e565b925050819055508273ffffffffffffffffffffffffffffffffffffffff168473ffffffffffffffffffffffffffffffffffffffff167fddf252ad1be2c89b69c2b068fc378daa952ba7f163c4a11628f55a4df523b3ef846040516117df91906120cc565b60405180910390a36117f2848484611bad565b50505050565b6000600560009054906101000a900473ffffffffffffffffffffffffffffffffffffffff16905081600560006101000a81548173ffffffffffffffffffffffffffffffffffffffff021916908373ffffffffffffffffffffffffffffffffffffffff1602179055508173ffffffffffffffffffffffffffffffffffffffff168173ffffffffffffffffffffffffffffffffffffffff167f8be0079c531659141344cd1fd0a4f28419497f9722a3daafe3b4186f6b6457e060405160405180910390a35050565b600073ffffffffffffffffffffffffffffffffffffffff168273ffffffffffffffffffffffffffffffffffffffff16141561192e576040517f08c379a0000000000000000000000000000000000000000000000000000000008152600401611925906120ac565b60405180910390fd5b61193a60008383611ba8565b806002600082825461194c919061211e565b92505081905550806000808473ffffffffffffffffffffffffffffffffffffffff1673ffffffffffffffffffffffffffffffffffffffff16815260200190815260200160002060008282546119a1919061211e565b925050819055508173ffffffffffffffffffffffffffffffffffffffff16600073ffffffffffffffffffffffffffffffffffffffff167fddf252ad1be2c89b69c2b068fc378daa952ba7f163c4a11628f55a4df523b3ef83604051611a0691906120cc565b60405180910390a3611a1a60008383611bad565b5050565b60008183611a2c919061211e565b905092915050565b6000611a3e61074f565b600a611a4a91906121f8565b82611a559190612316565b9050919050565b6000611a678261084b565b50905080611ad3576007829080600181540180825580915050600190039060005260206000200160009091909190916101000a81548173ffffffffffffffffffffffffffffffffffffffff021916908373ffffffffffffffffffffffffffffffffffffffff1602179055505b5050565b6000611ae1611318565b73ffffffffffffffffffffffffffffffffffffffff16611aff610af6565b73ffffffffffffffffffffffffffffffffffffffff1614611b55576040517f08c379a0000000000000000000000000000000000000000000000000000000008152600401611b4c9061200c565b60405180910390fd5b6064600860008473ffffffffffffffffffffffffffffffffffffffff1673ffffffffffffffffffffffffffffffffffffffff16815260200190815260200160002054611ba19190612174565b9050919050565b505050565b505050565b600081359050611bc1816127eb565b92915050565b600081359050611bd681612802565b92915050565b600060208284031215611bee57600080fd5b6000611bfc84828501611bb2565b91505092915050565b60008060408385031215611c1857600080fd5b6000611c2685828601611bb2565b9250506020611c3785828601611bb2565b9150509250929050565b600080600060608486031215611c5657600080fd5b6000611c6486828701611bb2565b9350506020611c7586828701611bb2565b9250506040611c8686828701611bc7565b9150509250925092565b60008060408385031215611ca357600080fd5b6000611cb185828601611bb2565b9250506020611cc285828601611bc7565b9150509250929050565b600060208284031215611cde57600080fd5b6000611cec84828501611bc7565b91505092915050565b611cfe81612370565b82525050565b611d0d81612382565b82525050565b6000611d1e82612102565b611d28818561210d565b9350611d388185602086016123c5565b611d4181612500565b840191505092915050565b6000611d5960238361210d565b9150611d648261251e565b604082019050919050565b6000611d7c60268361210d565b9150611d878261256d565b604082019050919050565b6000611d9f60228361210d565b9150611daa826125bc565b604082019050919050565b6000611dc2601d8361210d565b9150611dcd8261260b565b602082019050919050565b6000611de560268361210d565b9150611df082612634565b604082019050919050565b6000611e0860208361210d565b9150611e1382612683565b602082019050919050565b6000611e2b60258361210d565b9150611e36826126ac565b604082019050919050565b6000611e4e60248361210d565b9150611e59826126fb565b604082019050919050565b6000611e71601f8361210d565b9150611e7c8261274a565b602082019050919050565b6000611e9460258361210d565b9150611e9f82612773565b604082019050919050565b6000611eb7601f8361210d565b9150611ec2826127c2565b602082019050919050565b611ed6816123ae565b82525050565b611ee5816123b8565b82525050565b6000602082019050611f006000830184611cf5565b92915050565b6000602082019050611f1b6000830184611d04565b92915050565b6000604082019050611f366000830185611d04565b611f436020830184611ecd565b9392505050565b60006020820190508181036000830152611f648184611d13565b905092915050565b60006020820190508181036000830152611f8581611d4c565b9050919050565b60006020820190508181036000830152611fa581611d6f565b9050919050565b60006020820190508181036000830152611fc581611d92565b9050919050565b60006020820190508181036000830152611fe581611db5565b9050919050565b6000602082019050818103600083015261200581611dd8565b9050919050565b6000602082019050818103600083015261202581611dfb565b9050919050565b6000602082019050818103600083015261204581611e1e565b9050919050565b6000602082019050818103600083015261206581611e41565b9050919050565b6000602082019050818103600083015261208581611e64565b9050919050565b600060208201905081810360008301526120a581611e87565b9050919050565b600060208201905081810360008301526120c581611eaa565b9050919050565b60006020820190506120e16000830184611ecd565b92915050565b60006020820190506120fc6000830184611edc565b92915050565b600081519050919050565b600082825260208201905092915050565b6000612129826123ae565b9150612134836123ae565b9250827fffffffffffffffffffffffffffffffffffffffffffffffffffffffffffffffff0382111561216957612168612473565b5b828201905092915050565b600061217f826123ae565b915061218a836123ae565b92508261219a576121996124a2565b5b828204905092915050565b6000808291508390505b60018511156121ef578086048111156121cb576121ca612473565b5b60018516156121da5780820291505b80810290506121e885612511565b94506121af565b94509492505050565b6000612203826123ae565b915061220e836123b8565b925061223b7fffffffffffffffffffffffffffffffffffffffffffffffffffffffffffffffff8484612243565b905092915050565b600082612253576001905061230f565b81612261576000905061230f565b81600181146122775760028114612281576122b0565b600191505061230f565b60ff84111561229357612292612473565b5b8360020a9150848211156122aa576122a9612473565b5b5061230f565b5060208310610133831016604e8410600b84101617156122e55782820a9050838111156122e0576122df612473565b5b61230f565b6122f284848460016121a5565b9250905081840481111561230957612308612473565b5b81810290505b9392505050565b6000612321826123ae565b915061232c836123ae565b9250817fffffffffffffffffffffffffffffffffffffffffffffffffffffffffffffffff048311821515161561236557612364612473565b5b828202905092915050565b600061237b8261238e565b9050919050565b60008115159050919050565b600073ffffffffffffffffffffffffffffffffffffffff82169050919050565b6000819050919050565b600060ff82169050919050565b60005b838110156123e35780820151818401526020810190506123c8565b838111156123f2576000848401525b50505050565b6000600282049050600182168061241057607f821691505b60208210811415612424576124236124d1565b5b50919050565b6000612435826123ae565b91507fffffffffffffffffffffffffffffffffffffffffffffffffffffffffffffffff82141561246857612467612473565b5b600182019050919050565b7f4e487b7100000000000000000000000000000000000000000000000000000000600052601160045260246000fd5b7f4e487b7100000000000000000000000000000000000000000000000000000000600052601260045260246000fd5b7f4e487b7100000000000000000000000000000000000000000000000000000000600052602260045260246000fd5b6000601f19601f8301169050919050565b60008160011c9050919050565b7f45524332303a207472616e7366657220746f20746865207a65726f206164647260008201527f6573730000000000000000000000000000000000000000000000000000000000602082015250565b7f4f776e61626c653a206e6577206f776e657220697320746865207a65726f206160008201527f6464726573730000000000000000000000000000000000000000000000000000602082015250565b7f45524332303a20617070726f766520746f20746865207a65726f20616464726560008201527f7373000000000000000000000000000000000000000000000000000000000000602082015250565b7f45524332303a20696e73756666696369656e7420616c6c6f77616e6365000000600082015250565b7f45524332303a207472616e7366657220616d6f756e742065786365656473206260008201527f616c616e63650000000000000000000000000000000000000000000000000000602082015250565b7f4f776e61626c653a2063616c6c6572206973206e6f7420746865206f776e6572600082015250565b7f45524332303a207472616e736665722066726f6d20746865207a65726f20616460008201527f6472657373000000000000000000000000000000000000000000000000000000602082015250565b7f45524332303a20617070726f76652066726f6d20746865207a65726f2061646460008201527f7265737300000000000000000000000000000000000000000000000000000000602082015250565b7f596f75206d757374206861766520612072657761726420746f20636c61696d00600082015250565b7f45524332303a2064656372656173656420616c6c6f77616e63652062656c6f7760008201527f207a65726f000000000000000000000000000000000000000000000000000000602082015250565b7f45524332303a206d696e7420746f20746865207a65726f206164647265737300600082015250565b6127f481612370565b81146127ff57600080fd5b50565b61280b816123ae565b811461281657600080fd5b5056fea264697066735822122079ea1c8c3590e51d18e3b65852464b7d75c4aa37b484acb0ea80ffed8272fe0d64736f6c63430008040033",
  "linkReferences": {},
  "deployedLinkReferences": {}
}