{
  "_format": "hh-sol-artifact-1",
  "contractName": "StakeRewardToken",
  "sourceName": "contracts/StakeRewardToken.sol",
  "abi": [
    {
      "inputs": [],
      "stateMutability": "nonpayable",
      "type": "constructor"
    },
    {
      "anonymous": false,
      "inputs": [
        {
          "indexed": true,
          "internalType": "address",
          "name": "owner",
          "type": "address"
        },
        {
          "indexed": true,
          "internalType": "address",
          "name": "spender",
          "type": "address"
        },
        {
          "indexed": false,
          "internalType": "uint256",
          "name": "value",
          "type": "uint256"
        }
      ],
      "name": "Approval",
      "type": "event"
    },
    {
      "anonymous": false,
      "inputs": [
        {
          "indexed": true,
          "internalType": "address",
          "name": "previousOwner",
          "type": "address"
        },
        {
          "indexed": true,
          "internalType": "address",
          "name": "newOwner",
          "type": "address"
        }
      ],
      "name": "OwnershipTransferred",
      "type": "event"
    },
    {
      "anonymous": false,
      "inputs": [
        {
          "indexed": true,
          "internalType": "address",
          "name": "from",
          "type": "address"
        },
        {
          "indexed": true,
          "internalType": "address",
          "name": "to",
          "type": "address"
        },
        {
          "indexed": false,
          "internalType": "uint256",
          "name": "value",
          "type": "uint256"
        }
      ],
      "name": "Transfer",
      "type": "event"
    },
    {
      "inputs": [
        {
          "internalType": "address",
          "name": "owner",
          "type": "address"
        },
        {
          "internalType": "address",
          "name": "spender",
          "type": "address"
        }
      ],
      "name": "allowance",
      "outputs": [
        {
          "internalType": "uint256",
          "name": "",
          "type": "uint256"
        }
      ],
      "stateMutability": "view",
      "type": "function"
    },
    {
      "inputs": [
        {
          "internalType": "address",
          "name": "spender",
          "type": "address"
        },
        {
          "internalType": "uint256",
          "name": "amount",
          "type": "uint256"
        }
      ],
      "name": "approve",
      "outputs": [
        {
          "internalType": "bool",
          "name": "",
          "type": "bool"
        }
      ],
      "stateMutability": "nonpayable",
      "type": "function"
    },
    {
      "inputs": [
        {
          "internalType": "address",
          "name": "account",
          "type": "address"
        }
      ],
      "name": "balanceOf",
      "outputs": [
        {
          "internalType": "uint256",
          "name": "",
          "type": "uint256"
        }
      ],
      "stateMutability": "view",
      "type": "function"
    },
    {
      "inputs": [],
      "name": "buyToken",
      "outputs": [],
      "stateMutability": "payable",
      "type": "function"
    },
    {
      "inputs": [],
      "name": "claimReward",
      "outputs": [
        {
          "internalType": "bool",
          "name": "",
          "type": "bool"
        }
      ],
      "stateMutability": "nonpayable",
      "type": "function"
    },
    {
      "inputs": [],
      "name": "decimals",
      "outputs": [
        {
          "internalType": "uint8",
          "name": "",
          "type": "uint8"
        }
      ],
      "stateMutability": "view",
      "type": "function"
    },
    {
      "inputs": [
        {
          "internalType": "address",
          "name": "spender",
          "type": "address"
        },
        {
          "internalType": "uint256",
          "name": "subtractedValue",
          "type": "uint256"
        }
      ],
      "name": "decreaseAllowance",
      "outputs": [
        {
          "internalType": "bool",
          "name": "",
          "type": "bool"
        }
      ],
      "stateMutability": "nonpayable",
      "type": "function"
    },
    {
      "inputs": [
        {
          "internalType": "address",
          "name": "spender",
          "type": "address"
        },
        {
          "internalType": "uint256",
          "name": "addedValue",
          "type": "uint256"
        }
      ],
      "name": "increaseAllowance",
      "outputs": [
        {
          "internalType": "bool",
          "name": "",
          "type": "bool"
        }
      ],
      "stateMutability": "nonpayable",
      "type": "function"
    },
    {
      "inputs": [
        {
          "internalType": "address",
          "name": "_stakeholder",
          "type": "address"
        }
      ],
      "name": "isStakeHolder",
      "outputs": [
        {
          "internalType": "bool",
          "name": "",
          "type": "bool"
        },
        {
          "internalType": "uint256",
          "name": "",
          "type": "uint256"
        }
      ],
      "stateMutability": "view",
      "type": "function"
    },
    {
      "inputs": [
        {
          "internalType": "uint256",
          "name": "rate",
          "type": "uint256"
        }
      ],
      "name": "modifyTokenBuyPrice",
      "outputs": [],
      "stateMutability": "nonpayable",
      "type": "function"
    },
    {
      "inputs": [],
      "name": "name",
      "outputs": [
        {
          "internalType": "string",
          "name": "",
          "type": "string"
        }
      ],
      "stateMutability": "view",
      "type": "function"
    },
    {
      "inputs": [],
      "name": "owner",
      "outputs": [
        {
          "internalType": "address",
          "name": "",
          "type": "address"
        }
      ],
      "stateMutability": "view",
      "type": "function"
    },
    {
      "inputs": [],
      "name": "renounceOwnership",
      "outputs": [],
      "stateMutability": "nonpayable",
      "type": "function"
    },
    {
      "inputs": [
        {
          "internalType": "address",
          "name": "_stakeholder",
          "type": "address"
        }
      ],
      "name": "rewardOf",
      "outputs": [
        {
          "internalType": "uint256",
          "name": "",
          "type": "uint256"
        }
      ],
      "stateMutability": "view",
      "type": "function"
    },
    {
      "inputs": [],
      "name": "rewardStakeHolders",
      "outputs": [],
      "stateMutability": "nonpayable",
      "type": "function"
    },
    {
      "inputs": [
        {
          "internalType": "address",
          "name": "_stakeholder",
          "type": "address"
        }
      ],
      "name": "stakeOf",
      "outputs": [
        {
          "internalType": "uint256",
          "name": "",
          "type": "uint256"
        }
      ],
      "stateMutability": "view",
      "type": "function"
    },
    {
      "inputs": [
        {
          "internalType": "uint256",
          "name": "_stake",
          "type": "uint256"
        }
      ],
      "name": "stakeToken",
      "outputs": [
        {
          "internalType": "bool",
          "name": "",
          "type": "bool"
        }
      ],
      "stateMutability": "nonpayable",
      "type": "function"
    },
    {
      "inputs": [],
      "name": "symbol",
      "outputs": [
        {
          "internalType": "string",
          "name": "",
          "type": "string"
        }
      ],
      "stateMutability": "view",
      "type": "function"
    },
    {
      "inputs": [],
      "name": "tokensPerEther",
      "outputs": [
        {
          "internalType": "uint256",
          "name": "",
          "type": "uint256"
        }
      ],
      "stateMutability": "view",
      "type": "function"
    },
    {
      "inputs": [],
      "name": "totalStakeHolders",
      "outputs": [
        {
          "internalType": "uint256",
          "name": "",
          "type": "uint256"
        }
      ],
      "stateMutability": "view",
      "type": "function"
    },
    {
      "inputs": [],
      "name": "totalStakes",
      "outputs": [
        {
          "internalType": "uint256",
          "name": "",
          "type": "uint256"
        }
      ],
      "stateMutability": "view",
      "type": "function"
    },
    {
      "inputs": [],
      "name": "totalSupply",
      "outputs": [
        {
          "internalType": "uint256",
          "name": "",
          "type": "uint256"
        }
      ],
      "stateMutability": "view",
      "type": "function"
    },
    {
      "inputs": [
        {
          "internalType": "address",
          "name": "to",
          "type": "address"
        },
        {
          "internalType": "uint256",
          "name": "amount",
          "type": "uint256"
        }
      ],
      "name": "transfer",
      "outputs": [
        {
          "internalType": "bool",
          "name": "",
          "type": "bool"
        }
      ],
      "stateMutability": "nonpayable",
      "type": "function"
    },
    {
      "inputs": [
        {
          "internalType": "address",
          "name": "from",
          "type": "address"
        },
        {
          "internalType": "address",
          "name": "to",
          "type": "address"
        },
        {
          "internalType": "uint256",
          "name": "amount",
          "type": "uint256"
        }
      ],
      "name": "transferFrom",
      "outputs": [
        {
          "internalType": "bool",
          "name": "",
          "type": "bool"
        }
      ],
      "stateMutability": "nonpayable",
      "type": "function"
    },
    {
      "inputs": [
        {
          "internalType": "address",
          "name": "newOwner",
          "type": "address"
        }
      ],
      "name": "transferOwnership",
      "outputs": [],
      "stateMutability": "nonpayable",
      "type": "function"
    }
  ],
  "bytecode": "0x60806040526103e86006553480156200001757600080fd5b506040518060400160405280601081526020017f5374616b65526577617264546f6b656e000000000000000000000000000000008152506040518060400160405280600381526020017f535254000000000000000000000000000000000000000000000000000000000081525081600390805190602001906200009c92919062000390565b508060049080519060200190620000b592919062000390565b505050620000d8620000cc6200010260201b60201c565b6200010a60201b60201c565b620000fc33620000f06103e8620001d060201b60201c565b6200020460201b60201c565b620007ff565b600033905090565b6000600560009054906101000a900473ffffffffffffffffffffffffffffffffffffffff16905081600560006101000a81548173ffffffffffffffffffffffffffffffffffffffff021916908373ffffffffffffffffffffffffffffffffffffffff1602179055508173ffffffffffffffffffffffffffffffffffffffff168173ffffffffffffffffffffffffffffffffffffffff167f8be0079c531659141344cd1fd0a4f28419497f9722a3daafe3b4186f6b6457e060405160405180910390a35050565b6000620001e26200037d60201b60201c565b600a620001f0919062000580565b82620001fd9190620006bd565b9050919050565b600073ffffffffffffffffffffffffffffffffffffffff168273ffffffffffffffffffffffffffffffffffffffff16141562000277576040517f08c379a00000000000000000000000000000000000000000000000000000000081526004016200026e9062000478565b60405180910390fd5b6200028b600083836200038660201b60201c565b80600260008282546200029f9190620004c8565b92505081905550806000808473ffffffffffffffffffffffffffffffffffffffff1673ffffffffffffffffffffffffffffffffffffffff1681526020019081526020016000206000828254620002f69190620004c8565b925050819055508173ffffffffffffffffffffffffffffffffffffffff16600073ffffffffffffffffffffffffffffffffffffffff167fddf252ad1be2c89b69c2b068fc378daa952ba7f163c4a11628f55a4df523b3ef836040516200035d91906200049a565b60405180910390a362000379600083836200038b60201b60201c565b5050565b60006012905090565b505050565b505050565b8280546200039e9062000735565b90600052602060002090601f016020900481019282620003c257600085556200040e565b82601f10620003dd57805160ff19168380011785556200040e565b828001600101855582156200040e579182015b828111156200040d578251825591602001919060010190620003f0565b5b5090506200041d919062000421565b5090565b5b808211156200043c57600081600090555060010162000422565b5090565b60006200044f601f83620004b7565b91506200045c82620007d6565b602082019050919050565b62000472816200071e565b82525050565b60006020820190508181036000830152620004938162000440565b9050919050565b6000602082019050620004b1600083018462000467565b92915050565b600082825260208201905092915050565b6000620004d5826200071e565b9150620004e2836200071e565b9250827fffffffffffffffffffffffffffffffffffffffffffffffffffffffffffffffff038211156200051a57620005196200076b565b5b828201905092915050565b6000808291508390505b600185111562000577578086048111156200054f576200054e6200076b565b5b60018516156200055f5780820291505b80810290506200056f85620007c9565b94506200052f565b94509492505050565b60006200058d826200071e565b91506200059a8362000728565b9250620005c97fffffffffffffffffffffffffffffffffffffffffffffffffffffffffffffffff8484620005d1565b905092915050565b600082620005e35760019050620006b6565b81620005f35760009050620006b6565b81600181146200060c576002811462000617576200064d565b6001915050620006b6565b60ff8411156200062c576200062b6200076b565b5b8360020a9150848211156200064657620006456200076b565b5b50620006b6565b5060208310610133831016604e8410600b8410161715620006875782820a9050838111156200068157620006806200076b565b5b620006b6565b62000696848484600162000525565b92509050818404811115620006b057620006af6200076b565b5b81810290505b9392505050565b6000620006ca826200071e565b9150620006d7836200071e565b9250817fffffffffffffffffffffffffffffffffffffffffffffffffffffffffffffffff04831182151516156200071357620007126200076b565b5b828202905092915050565b6000819050919050565b600060ff82169050919050565b600060028204905060018216806200074e57607f821691505b602082108114156200076557620007646200079a565b5b50919050565b7f4e487b7100000000000000000000000000000000000000000000000000000000600052601160045260246000fd5b7f4e487b7100000000000000000000000000000000000000000000000000000000600052602260045260246000fd5b60008160011c9050919050565b7f45524332303a206d696e7420746f20746865207a65726f206164647265737300600082015250565b612b64806200080f6000396000f3fe6080604052600436106101665760003560e01c80638da5cb5b116100d1578063bf9befb11161008a578063e4c9050111610064578063e4c9050114610582578063f0e2b016146105ad578063f2fde38b146105c4578063f856d605146105ed57610166565b8063bf9befb1146104dd578063cda6b84714610508578063dd62ed3e1461054557610166565b80638da5cb5b146103d857806395d89b4114610403578063a457c2d71461042e578063a48217191461046b578063a9059cbb14610475578063b88a802f146104b257610166565b8063395093511161012357806339509351146102a357806342623360146102e0578063635121591461031d57806370a082311461035b578063715018a614610398578063834dc984146103af57610166565b806306fdde031461016b578063095ea7b31461019657806318160ddd146101d35780631d62ebd9146101fe57806323b872dd1461023b578063313ce56714610278575b600080fd5b34801561017757600080fd5b50610180610618565b60405161018d919061214d565b60405180910390f35b3480156101a257600080fd5b506101bd60048036038101906101b89190611e4d565b6106aa565b6040516101ca9190612109565b60405180910390f35b3480156101df57600080fd5b506101e86106cd565b6040516101f5919061230f565b60405180910390f35b34801561020a57600080fd5b5061022560048036038101906102209190611d99565b6106d7565b604051610232919061230f565b60405180910390f35b34801561024757600080fd5b50610262600480360381019061025d9190611dfe565b610720565b60405161026f9190612109565b60405180910390f35b34801561028457600080fd5b5061028d61074f565b60405161029a919061232a565b60405180910390f35b3480156102af57600080fd5b506102ca60048036038101906102c59190611e4d565b610758565b6040516102d79190612109565b60405180910390f35b3480156102ec57600080fd5b5061030760048036038101906103029190611d99565b610802565b604051610314919061230f565b60405180910390f35b34801561032957600080fd5b50610344600480360381019061033f9190611d99565b61084b565b604051610352929190612124565b60405180910390f35b34801561036757600080fd5b50610382600480360381019061037d9190611d99565b6109a0565b60405161038f919061230f565b60405180910390f35b3480156103a457600080fd5b506103ad6109e8565b005b3480156103bb57600080fd5b506103d660048036038101906103d19190611e89565b610a70565b005b3480156103e457600080fd5b506103ed610af6565b6040516103fa91906120ee565b60405180910390f35b34801561040f57600080fd5b50610418610b20565b604051610425919061214d565b60405180910390f35b34801561043a57600080fd5b5061045560048036038101906104509190611e4d565b610bb2565b6040516104629190612109565b60405180910390f35b610473610c9c565b005b34801561048157600080fd5b5061049c60048036038101906104979190611e4d565b610cbb565b6040516104a99190612109565b60405180910390f35b3480156104be57600080fd5b506104c7610cde565b6040516104d49190612109565b60405180910390f35b3480156104e957600080fd5b506104f2610e05565b6040516104ff919061230f565b60405180910390f35b34801561051457600080fd5b5061052f600480360381019061052a9190611e89565b610eef565b60405161053c9190612109565b60405180910390f35b34801561055157600080fd5b5061056c60048036038101906105679190611dc2565b61100a565b604051610579919061230f565b60405180910390f35b34801561058e57600080fd5b50610597611091565b6040516105a4919061230f565b60405180910390f35b3480156105b957600080fd5b506105c261109e565b005b3480156105d057600080fd5b506105eb60048036038101906105e69190611d99565b6111fc565b005b3480156105f957600080fd5b506106026112f4565b60405161060f919061230f565b60405180910390f35b6060600380546106279061266f565b80601f01602080910402602001604051908101604052809291908181526020018280546106539061266f565b80156106a05780601f10610675576101008083540402835291602001916106a0565b820191906000526020600020905b81548152906001019060200180831161068357829003601f168201915b5050505050905090565b6000806106b56112fe565b90506106c2818585611306565b600191505092915050565b6000600254905090565b6000600960008373ffffffffffffffffffffffffffffffffffffffff1673ffffffffffffffffffffffffffffffffffffffff168152602001908152602001600020549050919050565b60008061072b6112fe565b90506107388582856114d1565b61074385858561155d565b60019150509392505050565b60006012905090565b6000806107636112fe565b90506107f7818585600160008673ffffffffffffffffffffffffffffffffffffffff1673ffffffffffffffffffffffffffffffffffffffff16815260200190815260200160002060008973ffffffffffffffffffffffffffffffffffffffff1673ffffffffffffffffffffffffffffffffffffffff168152602001908152602001600020546107f29190612361565b611306565b600191505092915050565b6000600860008373ffffffffffffffffffffffffffffffffffffffff1673ffffffffffffffffffffffffffffffffffffffff168152602001908152602001600020549050919050565b6000806108566112fe565b73ffffffffffffffffffffffffffffffffffffffff16610874610af6565b73ffffffffffffffffffffffffffffffffffffffff16146108ca576040517f08c379a00000000000000000000000000000000000000000000000000000000081526004016108c19061222f565b60405180910390fd5b60005b6007805490508110156109925760078181548110610914577f4e487b7100000000000000000000000000000000000000000000000000000000600052603260045260246000fd5b9060005260206000200160009054906101000a900473ffffffffffffffffffffffffffffffffffffffff1673ffffffffffffffffffffffffffffffffffffffff168473ffffffffffffffffffffffffffffffffffffffff16141561097f57600181925092505061099b565b808061098a906126a1565b9150506108cd565b50600080915091505b915091565b60008060008373ffffffffffffffffffffffffffffffffffffffff1673ffffffffffffffffffffffffffffffffffffffff168152602001908152602001600020549050919050565b6109f06112fe565b73ffffffffffffffffffffffffffffffffffffffff16610a0e610af6565b73ffffffffffffffffffffffffffffffffffffffff1614610a64576040517f08c379a0000000000000000000000000000000000000000000000000000000008152600401610a5b9061222f565b60405180910390fd5b610a6e60006117de565b565b610a786112fe565b73ffffffffffffffffffffffffffffffffffffffff16610a96610af6565b73ffffffffffffffffffffffffffffffffffffffff1614610aec576040517f08c379a0000000000000000000000000000000000000000000000000000000008152600401610ae39061222f565b60405180910390fd5b8060068190555050565b6000600560009054906101000a900473ffffffffffffffffffffffffffffffffffffffff16905090565b606060048054610b2f9061266f565b80601f0160208091040260200160405190810160405280929190818152602001828054610b5b9061266f565b8015610ba85780601f10610b7d57610100808354040283529160200191610ba8565b820191906000526020600020905b815481529060010190602001808311610b8b57829003601f168201915b5050505050905090565b600080610bbd6112fe565b90506000600160008373ffffffffffffffffffffffffffffffffffffffff1673ffffffffffffffffffffffffffffffffffffffff16815260200190815260200160002060008673ffffffffffffffffffffffffffffffffffffffff1673ffffffffffffffffffffffffffffffffffffffff16815260200190815260200160002054905083811015610c83576040517f08c379a0000000000000000000000000000000000000000000000000000000008152600401610c7a906122cf565b60405180910390fd5b610c908286868403611306565b60019250505092915050565b600060065434610cac9190612559565b9050610cb833826118a4565b50565b600080610cc66112fe565b9050610cd381858561155d565b600191505092915050565b600080600960003373ffffffffffffffffffffffffffffffffffffffff1673ffffffffffffffffffffffffffffffffffffffff16815260200190815260200160002054905060008111610d66576040517f08c379a0000000000000000000000000000000000000000000000000000000008152600401610d5d906122af565b60405180910390fd5b610db7610d71610af6565b33600960003373ffffffffffffffffffffffffffffffffffffffff1673ffffffffffffffffffffffffffffffffffffffff16815260200190815260200160002054610720565b506000600960003373ffffffffffffffffffffffffffffffffffffffff1673ffffffffffffffffffffffffffffffffffffffff16815260200190815260200160002081905550600191505090565b6000806000905060005b600780549050811015610ee757610ed26008600060078481548110610e5d577f4e487b7100000000000000000000000000000000000000000000000000000000600052603260045260246000fd5b9060005260206000200160009054906101000a900473ffffffffffffffffffffffffffffffffffffffff1673ffffffffffffffffffffffffffffffffffffffff1673ffffffffffffffffffffffffffffffffffffffff1681526020019081526020016000205483611a0490919063ffffffff16565b91508080610edf906126a1565b915050610e0f565b508091505090565b600080610efb83611a1a565b9050610f073382611a42565b6000600860003373ffffffffffffffffffffffffffffffffffffffff1673ffffffffffffffffffffffffffffffffffffffff168152602001908152602001600020541415610f5957610f5833611c19565b5b610fab81600860003373ffffffffffffffffffffffffffffffffffffffff1673ffffffffffffffffffffffffffffffffffffffff16815260200190815260200160002054611a0490919063ffffffff16565b600860003373ffffffffffffffffffffffffffffffffffffffff1673ffffffffffffffffffffffffffffffffffffffff1681526020019081526020016000206000828254610ff99190612361565b925050819055506001915050919050565b6000600160008473ffffffffffffffffffffffffffffffffffffffff1673ffffffffffffffffffffffffffffffffffffffff16815260200190815260200160002060008373ffffffffffffffffffffffffffffffffffffffff1673ffffffffffffffffffffffffffffffffffffffff16815260200190815260200160002054905092915050565b6000600780549050905090565b6110a66112fe565b73ffffffffffffffffffffffffffffffffffffffff166110c4610af6565b73ffffffffffffffffffffffffffffffffffffffff161461111a576040517f08c379a00000000000000000000000000000000000000000000000000000000081526004016111119061222f565b60405180910390fd5b60005b6007805490508110156111f957600060078281548110611166577f4e487b7100000000000000000000000000000000000000000000000000000000600052603260045260246000fd5b9060005260206000200160009054906101000a900473ffffffffffffffffffffffffffffffffffffffff169050600061119e82611c94565b905080600960008473ffffffffffffffffffffffffffffffffffffffff1673ffffffffffffffffffffffffffffffffffffffff16815260200190815260200160002081905550505080806111f1906126a1565b91505061111d565b50565b6112046112fe565b73ffffffffffffffffffffffffffffffffffffffff16611222610af6565b73ffffffffffffffffffffffffffffffffffffffff1614611278576040517f08c379a000000000000000000000000000000000000000000000000000000000815260040161126f9061222f565b60405180910390fd5b600073ffffffffffffffffffffffffffffffffffffffff168173ffffffffffffffffffffffffffffffffffffffff1614156112e8576040517f08c379a00000000000000000000000000000000000000000000000000000000081526004016112df906121af565b60405180910390fd5b6112f1816117de565b50565b6000600654905090565b600033905090565b600073ffffffffffffffffffffffffffffffffffffffff168373ffffffffffffffffffffffffffffffffffffffff161415611376576040517f08c379a000000000000000000000000000000000000000000000000000000000815260040161136d9061228f565b60405180910390fd5b600073ffffffffffffffffffffffffffffffffffffffff168273ffffffffffffffffffffffffffffffffffffffff1614156113e6576040517f08c379a00000000000000000000000000000000000000000000000000000000081526004016113dd906121cf565b60405180910390fd5b80600160008573ffffffffffffffffffffffffffffffffffffffff1673ffffffffffffffffffffffffffffffffffffffff16815260200190815260200160002060008473ffffffffffffffffffffffffffffffffffffffff1673ffffffffffffffffffffffffffffffffffffffff168152602001908152602001600020819055508173ffffffffffffffffffffffffffffffffffffffff168373ffffffffffffffffffffffffffffffffffffffff167f8c5be1e5ebec7d5bd14f71427d1e84f3dd0314c0f7b2291e5b200ac8c7c3b925836040516114c4919061230f565b60405180910390a3505050565b60006114dd848461100a565b90507fffffffffffffffffffffffffffffffffffffffffffffffffffffffffffffffff81146115575781811015611549576040517f08c379a0000000000000000000000000000000000000000000000000000000008152600401611540906121ef565b60405180910390fd5b6115568484848403611306565b5b50505050565b600073ffffffffffffffffffffffffffffffffffffffff168373ffffffffffffffffffffffffffffffffffffffff1614156115cd576040517f08c379a00000000000000000000000000000000000000000000000000000000081526004016115c49061226f565b60405180910390fd5b600073ffffffffffffffffffffffffffffffffffffffff168273ffffffffffffffffffffffffffffffffffffffff16141561163d576040517f08c379a00000000000000000000000000000000000000000000000000000000081526004016116349061216f565b60405180910390fd5b611648838383611d65565b60008060008573ffffffffffffffffffffffffffffffffffffffff1673ffffffffffffffffffffffffffffffffffffffff168152602001908152602001600020549050818110156116ce576040517f08c379a00000000000000000000000000000000000000000000000000000000081526004016116c59061220f565b60405180910390fd5b8181036000808673ffffffffffffffffffffffffffffffffffffffff1673ffffffffffffffffffffffffffffffffffffffff16815260200190815260200160002081905550816000808573ffffffffffffffffffffffffffffffffffffffff1673ffffffffffffffffffffffffffffffffffffffff16815260200190815260200160002060008282546117619190612361565b925050819055508273ffffffffffffffffffffffffffffffffffffffff168473ffffffffffffffffffffffffffffffffffffffff167fddf252ad1be2c89b69c2b068fc378daa952ba7f163c4a11628f55a4df523b3ef846040516117c5919061230f565b60405180910390a36117d8848484611d6a565b50505050565b6000600560009054906101000a900473ffffffffffffffffffffffffffffffffffffffff16905081600560006101000a81548173ffffffffffffffffffffffffffffffffffffffff021916908373ffffffffffffffffffffffffffffffffffffffff1602179055508173ffffffffffffffffffffffffffffffffffffffff168173ffffffffffffffffffffffffffffffffffffffff167f8be0079c531659141344cd1fd0a4f28419497f9722a3daafe3b4186f6b6457e060405160405180910390a35050565b600073ffffffffffffffffffffffffffffffffffffffff168273ffffffffffffffffffffffffffffffffffffffff161415611914576040517f08c379a000000000000000000000000000000000000000000000000000000000815260040161190b906122ef565b60405180910390fd5b61192060008383611d65565b80600260008282546119329190612361565b92505081905550806000808473ffffffffffffffffffffffffffffffffffffffff1673ffffffffffffffffffffffffffffffffffffffff16815260200190815260200160002060008282546119879190612361565b925050819055508173ffffffffffffffffffffffffffffffffffffffff16600073ffffffffffffffffffffffffffffffffffffffff167fddf252ad1be2c89b69c2b068fc378daa952ba7f163c4a11628f55a4df523b3ef836040516119ec919061230f565b60405180910390a3611a0060008383611d6a565b5050565b60008183611a129190612361565b905092915050565b6000611a2461074f565b600a611a30919061243b565b82611a3b9190612559565b9050919050565b600073ffffffffffffffffffffffffffffffffffffffff168273ffffffffffffffffffffffffffffffffffffffff161415611ab2576040517f08c379a0000000000000000000000000000000000000000000000000000000008152600401611aa99061224f565b60405180910390fd5b611abe82600083611d65565b60008060008473ffffffffffffffffffffffffffffffffffffffff1673ffffffffffffffffffffffffffffffffffffffff16815260200190815260200160002054905081811015611b44576040517f08c379a0000000000000000000000000000000000000000000000000000000008152600401611b3b9061218f565b60405180910390fd5b8181036000808573ffffffffffffffffffffffffffffffffffffffff1673ffffffffffffffffffffffffffffffffffffffff168152602001908152602001600020819055508160026000828254611b9b91906125b3565b92505081905550600073ffffffffffffffffffffffffffffffffffffffff168373ffffffffffffffffffffffffffffffffffffffff167fddf252ad1be2c89b69c2b068fc378daa952ba7f163c4a11628f55a4df523b3ef84604051611c00919061230f565b60405180910390a3611c1483600084611d6a565b505050565b6000611c248261084b565b50905080611c90576007829080600181540180825580915050600190039060005260206000200160009091909190916101000a81548173ffffffffffffffffffffffffffffffffffffffff021916908373ffffffffffffffffffffffffffffffffffffffff1602179055505b5050565b6000611c9e6112fe565b73ffffffffffffffffffffffffffffffffffffffff16611cbc610af6565b73ffffffffffffffffffffffffffffffffffffffff1614611d12576040517f08c379a0000000000000000000000000000000000000000000000000000000008152600401611d099061222f565b60405180910390fd5b6064600860008473ffffffffffffffffffffffffffffffffffffffff1673ffffffffffffffffffffffffffffffffffffffff16815260200190815260200160002054611d5e91906123b7565b9050919050565b505050565b505050565b600081359050611d7e81612b00565b92915050565b600081359050611d9381612b17565b92915050565b600060208284031215611dab57600080fd5b6000611db984828501611d6f565b91505092915050565b60008060408385031215611dd557600080fd5b6000611de385828601611d6f565b9250506020611df485828601611d6f565b9150509250929050565b600080600060608486031215611e1357600080fd5b6000611e2186828701611d6f565b9350506020611e3286828701611d6f565b9250506040611e4386828701611d84565b9150509250925092565b60008060408385031215611e6057600080fd5b6000611e6e85828601611d6f565b9250506020611e7f85828601611d84565b9150509250929050565b600060208284031215611e9b57600080fd5b6000611ea984828501611d84565b91505092915050565b611ebb816125e7565b82525050565b611eca816125f9565b82525050565b6000611edb82612345565b611ee58185612350565b9350611ef581856020860161263c565b611efe81612777565b840191505092915050565b6000611f16602383612350565b9150611f2182612795565b604082019050919050565b6000611f39602283612350565b9150611f44826127e4565b604082019050919050565b6000611f5c602683612350565b9150611f6782612833565b604082019050919050565b6000611f7f602283612350565b9150611f8a82612882565b604082019050919050565b6000611fa2601d83612350565b9150611fad826128d1565b602082019050919050565b6000611fc5602683612350565b9150611fd0826128fa565b604082019050919050565b6000611fe8602083612350565b9150611ff382612949565b602082019050919050565b600061200b602183612350565b915061201682612972565b604082019050919050565b600061202e602583612350565b9150612039826129c1565b604082019050919050565b6000612051602483612350565b915061205c82612a10565b604082019050919050565b6000612074601f83612350565b915061207f82612a5f565b602082019050919050565b6000612097602583612350565b91506120a282612a88565b604082019050919050565b60006120ba601f83612350565b91506120c582612ad7565b602082019050919050565b6120d981612625565b82525050565b6120e88161262f565b82525050565b60006020820190506121036000830184611eb2565b92915050565b600060208201905061211e6000830184611ec1565b92915050565b60006040820190506121396000830185611ec1565b61214660208301846120d0565b9392505050565b600060208201905081810360008301526121678184611ed0565b905092915050565b6000602082019050818103600083015261218881611f09565b9050919050565b600060208201905081810360008301526121a881611f2c565b9050919050565b600060208201905081810360008301526121c881611f4f565b9050919050565b600060208201905081810360008301526121e881611f72565b9050919050565b6000602082019050818103600083015261220881611f95565b9050919050565b6000602082019050818103600083015261222881611fb8565b9050919050565b6000602082019050818103600083015261224881611fdb565b9050919050565b6000602082019050818103600083015261226881611ffe565b9050919050565b6000602082019050818103600083015261228881612021565b9050919050565b600060208201905081810360008301526122a881612044565b9050919050565b600060208201905081810360008301526122c881612067565b9050919050565b600060208201905081810360008301526122e88161208a565b9050919050565b60006020820190508181036000830152612308816120ad565b9050919050565b600060208201905061232460008301846120d0565b92915050565b600060208201905061233f60008301846120df565b92915050565b600081519050919050565b600082825260208201905092915050565b600061236c82612625565b915061237783612625565b9250827fffffffffffffffffffffffffffffffffffffffffffffffffffffffffffffffff038211156123ac576123ab6126ea565b5b828201905092915050565b60006123c282612625565b91506123cd83612625565b9250826123dd576123dc612719565b5b828204905092915050565b6000808291508390505b60018511156124325780860481111561240e5761240d6126ea565b5b600185161561241d5780820291505b808102905061242b85612788565b94506123f2565b94509492505050565b600061244682612625565b91506124518361262f565b925061247e7fffffffffffffffffffffffffffffffffffffffffffffffffffffffffffffffff8484612486565b905092915050565b6000826124965760019050612552565b816124a45760009050612552565b81600181146124ba57600281146124c4576124f3565b6001915050612552565b60ff8411156124d6576124d56126ea565b5b8360020a9150848211156124ed576124ec6126ea565b5b50612552565b5060208310610133831016604e8410600b84101617156125285782820a905083811115612523576125226126ea565b5b612552565b61253584848460016123e8565b9250905081840481111561254c5761254b6126ea565b5b81810290505b9392505050565b600061256482612625565b915061256f83612625565b9250817fffffffffffffffffffffffffffffffffffffffffffffffffffffffffffffffff04831182151516156125a8576125a76126ea565b5b828202905092915050565b60006125be82612625565b91506125c983612625565b9250828210156125dc576125db6126ea565b5b828203905092915050565b60006125f282612605565b9050919050565b60008115159050919050565b600073ffffffffffffffffffffffffffffffffffffffff82169050919050565b6000819050919050565b600060ff82169050919050565b60005b8381101561265a57808201518184015260208101905061263f565b83811115612669576000848401525b50505050565b6000600282049050600182168061268757607f821691505b6020821081141561269b5761269a612748565b5b50919050565b60006126ac82612625565b91507fffffffffffffffffffffffffffffffffffffffffffffffffffffffffffffffff8214156126df576126de6126ea565b5b600182019050919050565b7f4e487b7100000000000000000000000000000000000000000000000000000000600052601160045260246000fd5b7f4e487b7100000000000000000000000000000000000000000000000000000000600052601260045260246000fd5b7f4e487b7100000000000000000000000000000000000000000000000000000000600052602260045260246000fd5b6000601f19601f8301169050919050565b60008160011c9050919050565b7f45524332303a207472616e7366657220746f20746865207a65726f206164647260008201527f6573730000000000000000000000000000000000000000000000000000000000602082015250565b7f45524332303a206275726e20616d6f756e7420657863656564732062616c616e60008201527f6365000000000000000000000000000000000000000000000000000000000000602082015250565b7f4f776e61626c653a206e6577206f776e657220697320746865207a65726f206160008201527f6464726573730000000000000000000000000000000000000000000000000000602082015250565b7f45524332303a20617070726f766520746f20746865207a65726f20616464726560008201527f7373000000000000000000000000000000000000000000000000000000000000602082015250565b7f45524332303a20696e73756666696369656e7420616c6c6f77616e6365000000600082015250565b7f45524332303a207472616e7366657220616d6f756e742065786365656473206260008201527f616c616e63650000000000000000000000000000000000000000000000000000602082015250565b7f4f776e61626c653a2063616c6c6572206973206e6f7420746865206f776e6572600082015250565b7f45524332303a206275726e2066726f6d20746865207a65726f2061646472657360008201527f7300000000000000000000000000000000000000000000000000000000000000602082015250565b7f45524332303a207472616e736665722066726f6d20746865207a65726f20616460008201527f6472657373000000000000000000000000000000000000000000000000000000602082015250565b7f45524332303a20617070726f76652066726f6d20746865207a65726f2061646460008201527f7265737300000000000000000000000000000000000000000000000000000000602082015250565b7f596f75206d757374206861766520612072657761726420746f20636c61696d00600082015250565b7f45524332303a2064656372656173656420616c6c6f77616e63652062656c6f7760008201527f207a65726f000000000000000000000000000000000000000000000000000000602082015250565b7f45524332303a206d696e7420746f20746865207a65726f206164647265737300600082015250565b612b09816125e7565b8114612b1457600080fd5b50565b612b2081612625565b8114612b2b57600080fd5b5056fea2646970667358221220d5bef5457ebbcb6d17539f03784699faaa083f696236ff53e3c824bc38e7c88e64736f6c63430008040033",
  "linkReferences": {},
  "deployedLinkReferences": {}
}